:020000040000fa
:080000000002040000000000f2
:020000040000fa
:04000800dc02000016
:020000040000fa
:04000c00dc02000012
:020000040000fa
:04001000dc0200000e
:020000040000fa
:04001400dc0200000a
:020000040000fa
:04001800dc02000006
:020000040000fa
:04001c00dc02000002
:020000040000fa
:04002000dc020000fe
:020000040000fa
:04002400dc020000fa
:020000040000fa
:04002800dc020000f6
:020000040000fa
:04002c00dc020000f2
:020000040000fa
:04003000dc020000ee
:020000040000fa
:04003400dc020000ea
:020000040000fa
:04003800dc020000e6
:020000040000fa
:04003c00dc020000e2
:020000040000fa
:04004000dc020000de
:020000040000fa
:04004400dc020000da
:020000040000fa
:04004800dc020000d6
:020000040000fa
:04004c00dc020000d2
:020000040000fa
:04005000dc020000ce
:020000040000fa
:04005400dc020000ca
:020000040000fa
:04005800dc020000c6
:020000040000fa
:04005c00dc020000c2
:020000040000fa
:04006000dc020000be
:020000040000fa
:04006400dc020000ba
:020000040000fa
:04006800dc020000b6
:020000040000fa
:04006c00dc020000b2
:020000040000fa
:04007000dc020000ae
:020000040000fa
:04007400dc020000aa
:020000040000fa
:04007800dc020000a6
:020000040000fa
:04007c00dc020000a2
:020000040000fa
:04008000dc0200009e
:020000040000fa
:04008400dc0200009a
:020000040000fa
:04008800dc02000096
:020000040000fa
:04008c00dc02000092
:020000040000fa
:04009000dc0200008e
:020000040000fa
:04009400dc0200008a
:020000040000fa
:04009800dc02000086
:020000040000fa
:04009c00dc02000082
:020000040000fa
:0400a000dc0200007e
:020000040000fa
:0400a400dc0200007a
:020000040000fa
:0400a800dc02000076
:020000040000fa
:0400ac00dc02000072
:020000040000fa
:0400b000dc0200006e
:020000040000fa
:0400b400dc0200006a
:020000040000fa
:0400b800dc02000066
:020000040000fa
:0400bc00dc02000062
:020000040000fa
:0400c000dc0200005e
:020000040000fa
:0400c400dc0200005a
:020000040000fa
:0400c800dc02000056
:020000040000fa
:0400cc00dc02000052
:020000040000fa
:0400d000dc0200004e
:020000040000fa
:0400d400dc0200004a
:020000040000fa
:0400d800dc02000046
:020000040000fa
:0400dc00dc02000042
:020000040000fa
:0400e000dc0200003e
:020000040000fa
:0400e400dc0200003a
:020000040000fa
:0400e800dc02000036
:020000040000fa
:0400ec00dc02000032
:020000040000fa
:0400f000dc0200002e
:020000040000fa
:0400f400dc0200002a
:020000040000fa
:0400f800dc02000026
:020000040000fa
:0400fc00dc02000022
:020000040000fa
:04010000dc0200001d
:020000040000fa
:04010400dc02000019
:020000040000fa
:04010800dc02000015
:020000040000fa
:04010c00dc02000011
:020000040000fa
:04011000dc0200000d
:020000040000fa
:04011400dc02000009
:020000040000fa
:04011800dc02000005
:020000040000fa
:04011c00dc02000001
:020000040000fa
:04012000dc020000fd
:020000040000fa
:04012400dc020000f9
:020000040000fa
:04012800dc020000f5
:020000040000fa
:04012c00dc020000f1
:020000040000fa
:04013000dc020000ed
:020000040000fa
:04013400dc020000e9
:020000040000fa
:04013800dc020000e5
:020000040000fa
:04013c00dc020000e1
:020000040000fa
:04014000dc020000dd
:020000040000fa
:04014400dc020000d9
:020000040000fa
:04014800dc020000d5
:020000040000fa
:04014c00dc020000d1
:020000040000fa
:04015000dc020000cd
:020000040000fa
:04015400dc020000c9
:020000040000fa
:04015800dc020000c5
:020000040000fa
:04015c00dc020000c1
:020000040000fa
:04016000dc020000bd
:020000040000fa
:04016400dc020000b9
:020000040000fa
:04016800dc020000b5
:020000040000fa
:04020800dc02000014
:020000040000fa
:04020c00dc02000010
:020000040000fa
:04021000dc0200000c
:020000040000fa
:04021400dc02000008
:020000040000fa
:04021800dc02000004
:020000040000fa
:04021c00dc02000000
:020000040000fa
:04022000dc020000fc
:020000040000fa
:04022400dc020000f8
:020000040000fa
:04022800dc020000f4
:020000040000fa
:04022c00dc020000f0
:020000040000fa
:04023000dc020000ec
:020000040000fa
:04023400dc020000e8
:020000040000fa
:04023800dc020000e4
:020000040000fa
:04023c00dc020000e0
:020000040000fa
:04024000dc020000dc
:020000040000fa
:04024400dc020000d8
:020000040000fa
:04024800dc020000d4
:020000040000fa
:04024c00dc020000d0
:020000040000fa
:04025000dc020000cc
:020000040000fa
:04025400dc020000c8
:020000040000fa
:04025800dc020000c4
:020000040000fa
:04025c00dc020000c0
:020000040000fa
:04026000dc020000bc
:020000040000fa
:04026400dc020000b8
:020000040000fa
:04026800dc020000b4
:020000040000fa
:04026c00dc020000b0
:020000040000fa
:04027000dc020000ac
:020000040000fa
:04027400dc020000a8
:020000040000fa
:04027800dc020000a4
:020000040000fa
:04027c00dc020000a0
:020000040000fa
:04028000dc0200009c
:020000040000fa
:04028400dc02000098
:020000040000fa
:04028800dc02000094
:020000040000fa
:04028c00dc02000090
:020000040000fa
:04029000dc0200008c
:020000040000fa
:04029400dc02000088
:020000040000fa
:04029800dc02000084
:020000040000fa
:04029c00dc02000080
:020000040000fa
:0402a000dc0200007c
:020000040000fa
:0402a400dc02000078
:020000040000fa
:0402a800dc02000074
:020000040000fa
:0402ac00dc02000070
:020000040000fa
:0402b000dc0200006c
:020000040000fa
:0402b400dc02000068
:020000040000fa
:0402b800dc02000064
:020000040000fa
:0402bc00dc02000060
:020000040000fa
:0402c000dc0200005c
:020000040000fa
:0402c400dc02000058
:020000040000fa
:0402c800dc02000054
:020000040000fa
:0402cc00dc02000050
:020000040000fa
:0402d000dc0200004c
:020000040000fa
:0402d400dc02000048
:020000040000fa
:0402d800dc02000044
:020000040000fa
:0402dc00dc02000040
:020000040000fa
:0402e000dc0200003c
:020000040000fa
:0402e400dc02000038
:020000040000fa
:0402e800dc02000034
:020000040000fa
:0402ec00dc02000030
:020000040000fa
:0402f000dc0200002c
:020000040000fa
:0402f400dc02000028
:020000040000fa
:0402f800dc02000024
:020000040000fa
:0402fc00dc02000020
:020000040000fa
:04030000dc0200001b
:020000040000fa
:04030400dc02000017
:020000040000fa
:04030800dc02000013
:020000040000fa
:04030c00dc0200000f
:020000040000fa
:04031000dc0200000b
:020000040000fa
:04031400dc02000007
:020000040000fa
:04031800dc02000003
:020000040000fa
:04031c00dc020000ff
:020000040000fa
:04032000dc020000fb
:020000040000fa
:04032400dc020000f7
:020000040000fa
:04032800dc020000f3
:020000040000fa
:04032c00dc020000ef
:020000040000fa
:04033000dc020000eb
:020000040000fa
:04033400dc020000e7
:020000040000fa
:04033800dc020000e3
:020000040000fa
:04033c00dc020000df
:020000040000fa
:04034000dc020000db
:020000040000fa
:04034400dc020000d7
:020000040000fa
:04034800dc020000d3
:020000040000fa
:04034c00dc020000cf
:020000040000fa
:04035000dc020000cb
:020000040000fa
:04035400dc020000c7
:020000040000fa
:04035800dc020000c3
:020000040000fa
:04035c00dc020000bf
:020000040000fa
:04036000dc020000bb
:020000040000fa
:04036400dc020000b7
:020000040000fa
:04036800dc020000b3
:020000040000fa
:100400004f8120000eff20000e0188000000000038
:10041000000020000000e000020032000001200087
:100420002002880014000700650007000000e000bb
:1004300003003a00c06620000100200002003700df
:100440000000200001002000810f70000100320038
:1004500014000700000020000000e000020032004d
:100460000000020000000000e202020000000000a4
:100470000040da000000fe004440a9000000200017
:100480000000e0000300320000002000a00188000e
:100490004440a800000006008a1f78008b1f7800e7
:1004a0000000060091018800800478000000eb0045
:1004b0001a003700e284440032a0b4009905ba0063
:1004c000e284440032a0b4009906ba00e2844400f9
:1004d00032a0b4000006eb00476fde00fd07b2005b
:1004e000636ce10003003a00ebff07000000eb0043
:1004f0000a003700606ce10004003a00005deb0088
:100500008b05e900fdff3e00040037006168e10053
:10051000010032000086eb000b00070019c7ba008b
:100520001905ba000e04e00003003a000a00e000da
:10053000e0ff3a0000000600fe07b2009e018800be
:100540008a047800f5ff3700395dba008b05e900b1
:100550000c003200295dba008b05e900080032006a
:100560000c00e00003003a00e284440032a0b40032
:10057000f5ff370019ddba008b05e900faff3a00f4
:100580008904e800e184440032a0b40000000600c1
:10059000000000000000000000000000000000005b
:1005a000000000000000000000000000000000004b
:1005b00000000000000000000040da000000fe0023
:0405c0000000050032
:020000040000fa
:1005c4000000fa00213a8000f08f2f0000806000c4
:1005d400203a8800e05e200000000100c061200095
:1005e40000000100c031200000000100a04a2000ea
:1005f40000000100fbff37000000fa003018800003
:100604008b00070020408800401880008800070005
:1006140030408800d01880008500070040408800e2
:10062400e018800082000700504088000080fa0033
:10063400000006000000fa0060408000e90f50004e
:100644001c003200e90f500003003c00e80f50008a
:10065400060032005c003700ea0f50002700320029
:10066400eb0f50003700320057003700311880007c
:10067400b00d2000808f500044003e00e11880003f
:10068400b0122000808f500003003e009000200034
:10069400604088004c00370041188000b0122000f0
:1006a400808f50003b003e00b00020006040880076
:1006b4004500370041188000b00d2000808f5000a5
:1006c40036003e0031188000b0122000808f5000a8
:1006d40003003e00a0002000604088003a0037007c
:1006e400d1188000b0122000808f50002d003e00f1
:1006f400800020006040880033003700d11880005b
:10070400b00d2000808f500028003e00e1188000ca
:10071400b0122000808f500003003e0090002000a3
:10072400604088002800370041188000b012200083
:10073400808f50001f003e00b00020006040880001
:1007440021003700e1188000b00d2000808f500098
:100754001a003e0031188000b0122000808f500033
:1007640003003e00a000200060408800160037000f
:10077400d1188000b0122000808f500011003e007c
:1007840080002000604088000f0037000000000057
:100794000d003700000000000b00370000000000cf
:1007a40009003700000000000700370000000000c7
:1007b40005003700000000000300370000000000bf
:1007c40001003700000000000080fa00000006006d
:1007d4000000fa00004080000000e00011003a0030
:1007e400904080000000e0000e003a0010408000bd
:1007f4000000e0000b003a00e1188000b012200075
:10080400808f500006003e0041188000b012200086
:10081400808f500002003e001000200002003700cc
:10082400010037000000eb000080fa000000060021
:100834000200fa00000f7800b00d20009e0078003e
:10084400808f500002003e0010002000010037009d
:100854000000eb000080fa00000006000000fa002f
:10086400001880002900070000408800101880004c
:10087400260007009040880020188000230007000d
:100884001040880000408000e10f500005003a004d
:10089400904080000000e000020032005000200080
:1008a4001800370010408000e10f500005003a00a6
:1008b400904080000000e000020032002000200090
:1008c40010003700004080000000e0000200320009
:1008d400300020000b003700104080000000e000d2
:1008e40002003200600020000600370090408000c3
:1008f4000000e00002003200100020000100370078
:100904000000eb000080fa00000006000200fa007c
:10091400000f7800902a20009e007800808f5000fd
:10092400020036000000eb000700370040152000ed
:100934009e007800808f50000200360010002000d6
:1009440001003700200020000080fa0000000600ab
:100954000000fa008140800060408000808f5000d9
:100964006b00320060408000cf80de00b2002000c7
:1009740003002000820f5000838f580061003e0066
:10098400006001000b00370011003700170037002a
:100994001d00370023003700290037002f003700df
:1009a400350037003b00370041003700470037006f
:1009b4004d003700045920008001eb000001eb00da
:1009c4008000eb000000eb00040001004d00370044
:1009d40004592000130020000001eb008000eb000c
:1009e4000000eb0004000100460037000459200019
:1009f4008001eb00120020008000eb000000eb00ff
:100a0400040001003f0037000459200013002000b7
:100a1400120020008000eb000000eb000400010045
:100a240038003700045920008001eb000001eb007e
:100a3400110020000000eb00040001003100370029
:100a440004592000130020000001eb0011002000d5
:100a54000000eb00040001002a00370004592000c4
:100a64008001eb0012002000110020000000eb00c8
:100a74000400010023003700045920001300200063
:100a840012002000110020000000eb00040001000f
:100a94001c003700045920008001eb000001eb002a
:100aa4008000eb0010002000040001001500370056
:100ab40004592000130020000001eb008000eb002b
:100ac40010002000040001000e003700045920002b
:100ad4008001eb00120020008000eb0010002000d9
:100ae400040001000700370004592000130020000f
:100af400120020008000eb00100020000400010020
:100b04000000000060408000804088000100370041
:100b1400000000000080fa00000006000800fa004f
:100b2400000f7800110798002207980033079800f7
:100b34001e00780000407800614060000080fb00e7
:100b4400610060004400dd00611680000140a100e6
:100b540001007000601688001e00900000407800bc
:100b6400614060000080fb00610060004400dd0023
:100b7400211680000140a1000100700020168800a9
:100b84002e00900000407800614060000080fb006f
:100b9400610060004800dd00611680000180a10052
:100ba40001007000601688003e009000004078004c
:100bb400614060000080fb00610060004700dd00d0
:100bc400611680000170a1000100700060168800a9
:100bd4000080fa00000006000000fa00c022ef00c6
:100be400c822ef00e024ef00e224ef00c422ef006b
:100bf400cc22ef00c002a800c022a800c802a800ae
:100c0400c822a800c842a800c042a800c062a80028
:100c1400e004a800e024a800e204a800e224a8005c
:100c2400e244a800e044a800e064a8000080fa00c0
:100c3400000006000000fa0041e3a9004143a900b6
:100c4400011a8000f0cf2f0000806000001a880095
:100c5400011a8000f0f02f0080806000000720005f
:100c640001007000001a88004043a800111a800097
:100c7400f0ff230000806000101a880043a3a9003d
:100c84004363a8004343a800111a800030f82f00e2
:100c9400008060008001b300101a88004203a9009c
:100ca40045e3a900211a8000f00f2e0000806000a7
:100cb4000080a000201a880000c2b30044e3b700fb
:100cc400f0012600801a880041e3a8000080fa00a1
:040cd4000000060016
:020000040000fa
:100cd8000c08000008000000020000000800ff00e7
:100ce800ffffff0002000000000800000c000000e9
:080cf8000000000000000000f4
:020000040000fa
:0200000401f009
:04000c00dfff000012
:020000040000fa
:0200000401f009
:04001000fbff0000f2
:00000001FF
