:020000040000fa
:080000000002040000000000f2
:020000040000fa
:040008002e030000c3
:020000040000fa
:04000c002e030000bf
:020000040000fa
:040010002e030000bb
:020000040000fa
:040014002e030000b7
:020000040000fa
:040018002e030000b3
:020000040000fa
:04001c002e030000af
:020000040000fa
:040020002e030000ab
:020000040000fa
:040024002e030000a7
:020000040000fa
:040028002e030000a3
:020000040000fa
:04002c002e0300009f
:020000040000fa
:04003000ea020000e0
:020000040000fa
:040034002e03000097
:020000040000fa
:040038002e03000093
:020000040000fa
:04003c002e0300008f
:020000040000fa
:040040000c030000ad
:020000040000fa
:040044002e03000087
:020000040000fa
:040048002e03000083
:020000040000fa
:04004c002e0300007f
:020000040000fa
:040050002e0300007b
:020000040000fa
:040054002e03000077
:020000040000fa
:040058002e03000073
:020000040000fa
:04005c002e0300006f
:020000040000fa
:040060002e0300006b
:020000040000fa
:040064002e03000067
:020000040000fa
:040068002e03000063
:020000040000fa
:04006c002e0300005f
:020000040000fa
:040070002e0300005b
:020000040000fa
:040074002e03000057
:020000040000fa
:040078002e03000053
:020000040000fa
:04007c002e0300004f
:020000040000fa
:040080002e0300004b
:020000040000fa
:040084002e03000047
:020000040000fa
:040088002e03000043
:020000040000fa
:04008c00c8020000a6
:020000040000fa
:040090002e0300003b
:020000040000fa
:040094002e03000037
:020000040000fa
:040098002e03000033
:020000040000fa
:04009c002e0300002f
:020000040000fa
:0400a0002e0300002b
:020000040000fa
:0400a4002e03000027
:020000040000fa
:0400a8002e03000023
:020000040000fa
:0400ac002e0300001f
:020000040000fa
:0400b0002e0300001b
:020000040000fa
:0400b4002e03000017
:020000040000fa
:0400b8002e03000013
:020000040000fa
:0400bc002e0300000f
:020000040000fa
:0400c0002e0300000b
:020000040000fa
:0400c4002e03000007
:020000040000fa
:0400c8002e03000003
:020000040000fa
:0400cc002e030000ff
:020000040000fa
:0400d0002e030000fb
:020000040000fa
:0400d4002e030000f7
:020000040000fa
:0400d8002e030000f3
:020000040000fa
:0400dc002e030000ef
:020000040000fa
:0400e0002e030000eb
:020000040000fa
:0400e4002e030000e7
:020000040000fa
:0400e8002e030000e3
:020000040000fa
:0400ec002e030000df
:020000040000fa
:0400f0002e030000db
:020000040000fa
:0400f4002e030000d7
:020000040000fa
:0400f8002e030000d3
:020000040000fa
:0400fc002e030000cf
:020000040000fa
:040100002e030000ca
:020000040000fa
:040104002e030000c6
:020000040000fa
:040108002e030000c2
:020000040000fa
:04010c002e030000be
:020000040000fa
:040110002e030000ba
:020000040000fa
:040114002e030000b6
:020000040000fa
:040118002e030000b2
:020000040000fa
:04011c002e030000ae
:020000040000fa
:040120002e030000aa
:020000040000fa
:040124002e030000a6
:020000040000fa
:040128002e030000a2
:020000040000fa
:04012c002e0300009e
:020000040000fa
:040130002e0300009a
:020000040000fa
:040134002e03000096
:020000040000fa
:040138002e03000092
:020000040000fa
:04013c002e0300008e
:020000040000fa
:040140002e0300008a
:020000040000fa
:040144002e03000086
:020000040000fa
:040148002e03000082
:020000040000fa
:04014c002e0300007e
:020000040000fa
:040150002e0300007a
:020000040000fa
:040154002e03000076
:020000040000fa
:040158002e03000072
:020000040000fa
:04015c002e0300006e
:020000040000fa
:040160002e0300006a
:020000040000fa
:040164002e03000066
:020000040000fa
:040168002e03000062
:020000040000fa
:040208002e030000c1
:020000040000fa
:04020c002e030000bd
:020000040000fa
:040210002e030000b9
:020000040000fa
:040214002e030000b5
:020000040000fa
:040218002e030000b1
:020000040000fa
:04021c002e030000ad
:020000040000fa
:040220002e030000a9
:020000040000fa
:040224002e030000a5
:020000040000fa
:040228002e030000a1
:020000040000fa
:04022c002e0300009d
:020000040000fa
:04023000ea020000de
:020000040000fa
:040234002e03000095
:020000040000fa
:040238002e03000091
:020000040000fa
:04023c002e0300008d
:020000040000fa
:040240000c030000ab
:020000040000fa
:040244002e03000085
:020000040000fa
:040248002e03000081
:020000040000fa
:04024c002e0300007d
:020000040000fa
:040250002e03000079
:020000040000fa
:040254002e03000075
:020000040000fa
:040258002e03000071
:020000040000fa
:04025c002e0300006d
:020000040000fa
:040260002e03000069
:020000040000fa
:040264002e03000065
:020000040000fa
:040268002e03000061
:020000040000fa
:04026c002e0300005d
:020000040000fa
:040270002e03000059
:020000040000fa
:040274002e03000055
:020000040000fa
:040278002e03000051
:020000040000fa
:04027c002e0300004d
:020000040000fa
:040280002e03000049
:020000040000fa
:040284002e03000045
:020000040000fa
:040288002e03000041
:020000040000fa
:04028c00c8020000a4
:020000040000fa
:040290002e03000039
:020000040000fa
:040294002e03000035
:020000040000fa
:040298002e03000031
:020000040000fa
:04029c002e0300002d
:020000040000fa
:0402a0002e03000029
:020000040000fa
:0402a4002e03000025
:020000040000fa
:0402a8002e03000021
:020000040000fa
:0402ac002e0300001d
:020000040000fa
:0402b0002e03000019
:020000040000fa
:0402b4002e03000015
:020000040000fa
:0402b8002e03000011
:020000040000fa
:0402bc002e0300000d
:020000040000fa
:0402c0002e03000009
:020000040000fa
:0402c4002e03000005
:020000040000fa
:0402c8002e03000001
:020000040000fa
:0402cc002e030000fd
:020000040000fa
:0402d0002e030000f9
:020000040000fa
:0402d4002e030000f5
:020000040000fa
:0402d8002e030000f1
:020000040000fa
:0402dc002e030000ed
:020000040000fa
:0402e0002e030000e9
:020000040000fa
:0402e4002e030000e5
:020000040000fa
:0402e8002e030000e1
:020000040000fa
:0402ec002e030000dd
:020000040000fa
:0402f0002e030000d9
:020000040000fa
:0402f4002e030000d5
:020000040000fa
:0402f8002e030000d1
:020000040000fa
:0402fc002e030000cd
:020000040000fa
:040300002e030000c8
:020000040000fa
:040304002e030000c4
:020000040000fa
:040308002e030000c0
:020000040000fa
:04030c002e030000bc
:020000040000fa
:040310002e030000b8
:020000040000fa
:040314002e030000b4
:020000040000fa
:040318002e030000b0
:020000040000fa
:04031c002e030000ac
:020000040000fa
:040320002e030000a8
:020000040000fa
:040324002e030000a4
:020000040000fa
:040328002e030000a0
:020000040000fa
:04032c002e0300009c
:020000040000fa
:040330002e03000098
:020000040000fa
:040334002e03000094
:020000040000fa
:040338002e03000090
:020000040000fa
:04033c002e0300008c
:020000040000fa
:040340002e03000088
:020000040000fa
:040344002e03000084
:020000040000fa
:040348002e03000080
:020000040000fa
:04034c002e0300007c
:020000040000fa
:040350002e03000078
:020000040000fa
:040354002e03000074
:020000040000fa
:040358002e03000070
:020000040000fa
:04035c002e0300006c
:020000040000fa
:040360002e03000068
:020000040000fa
:040364002e03000064
:020000040000fa
:040368002e03000060
:020000040000fa
:10040000af8020000eff20000e01880000000000d9
:10041000000020000000e000020032000001200087
:1004200020028800140007008e0007000000e00092
:1004300003003a0060652000010020000200370040
:100440000000200001002000810f70000100320038
:1004500014000700000020000000e000020032004d
:10046000000002000000000046060200000000003c
:100470000040da000000fe004440a9000000200017
:100480000000e0000300320000002000a00188000e
:100490004440a800000006008a1f78008b1f7800e7
:1004a0000000060091018800800478000000eb0045
:1004b0001a003700e284440032a0b4009905ba0063
:1004c000e284440032a0b4009906ba00e2844400f9
:1004d00032a0b4000006eb00476fde00fd07b2005b
:1004e000636ce10003003a00ebff07000000eb0043
:1004f0000a003700606ce10004003a00005deb0088
:100500008b05e900fdff3e00040037006168e10053
:10051000010032000086eb000b00070019c7ba008b
:100520001905ba000e04e00003003a000a00e000da
:10053000e0ff3a0000000600fe07b2009e018800be
:100540008a047800f5ff3700395dba008b05e900b1
:100550000c003200295dba008b05e900080032006a
:100560000c00e00003003a00e284440032a0b40032
:10057000f5ff370019ddba008b05e900faff3a00f4
:100580008904e800e184440032a0b40000000600c1
:10059000809fbe000000fa008720a9000040800074
:1005a00080007800400d8000808f500006003100f0
:1005b000400d800065005000400d8800400d800017
:1005c0000000d100500d88000080fa004f00be00ee
:1005d00000400600809fbe000000fa008440a90091
:1005e0002040800080007800a00c8000808f5000a8
:1005f00006003100a00c800065005000a00c8800af
:10060000a00c80000000d100b00c88000080fa002f
:100610004f00be0000400600809fbe000000fa00b0
:1006200084c0a9001040800080007800f00c800099
:10063000808f500006003100f00c800065005000f3
:10064000f00c8800f00c80000000d100000d880044
:100650000080fa004f00be00004006000040da00b3
:080660000000fe00000005008f
:020000040000fa
:100668000000fa003140800040408000808f500038
:10067800590032001e01070040408000e80f50007a
:100688002f003200e80f50000c003c00e10f500032
:1006980018003200e10f500003003c000000e000a9
:1006a8000f00320049003700e30f500016003200f7
:1006b800e60f50001b00320044003700ea0f5000dc
:1006c80026003200ea0f500032003500eb0f5000d0
:1006d80029003200ef0f5000350032003b00370090
:1006e800409c2000d2000700cd02a800cd22a8001f
:1006f80036003700409c2000cd000700cd02a8003e
:10070800cd22a80031003700c2da200001fa20000b
:1007180010002000d6000700cd02a800cd22a800b6
:100728002a003700c2da200001fa20000000eb009e
:10073800cf000700cd02a800cd22a8002300370073
:10074800244e20008081eb000081eb001100200086
:1007580010002000400007001c003700244e200035
:100768008081eb000081eb008000eb000000eb00d3
:100778003900070015003700244e20001300200020
:10078800120020008080eb000080eb0032000700a0
:100798000e003700244e20008001eb000001eb0022
:1007a8008080eb000080eb002b000700070037007b
:1007b800244e20008081eb000081eb008080eb005c
:1007c8000080eb002400070000000000404080008b
:1007d8003040880001003700000000000080fa0067
:1007e800000006000200fa000000eb00000f78008d
:1007f800501680004f00de00004078000080fb00ab
:100808001e0f7000501680004e00de006140600030
:100818000080fb00000040001e0f70005016800092
:100828004d00de00614060000080fb004200dd00fa
:100838001e0f7000501680004c00de006140600002
:100848000080fb004300dd001e0f70001e007800d2
:100858000080fa00000006000a00fa00000f780085
:10086800110798002207980033079800440798005a
:100878001e007800e10f4000040032001e007800de
:100888000040780061406000010037000040eb0044
:100898000080fb00610060004900dd0061168000f7
:1008a8000190a10001007000601688001e009000f1
:1008b800e10f4000040032001e0090000040780064
:1008c80061406000010037000040eb000080fb0041
:1008d800610060004800dd00611680000180a10011
:1008e80001007000601688002e009000e10f4000a3
:1008f800040032002e009000004078006140600043
:10090800010037000040eb000080fb006100600040
:10091800211680000100a100010070002016880047
:100928003e009000e10f4000040032003e009000bd
:100938000040780061406000010037000040eb0093
:100948000080fb006100600000004000211680006c
:100958000110a10001007000201688002e009000f0
:10096800e10f400003003a003e009000e10f400014
:1009780008003200ce00900021408800409c2000f2
:10098800a00c8800a00c80000000d100b00c8800ea
:10099800020037009421ef009621ef001e00780036
:1009a800e10f400003003a001e009000e10f4000f4
:1009b8000f003200ce00900011408800409c2000bb
:1009c800f00c8800f00c80000000d100000d8800b9
:1009d800ce00900001408800409c2000400d880017
:1009e800400d80000000d100500d88000200370043
:1009f800a821ef00aa21ef000080fa0000000600fd
:100a08000000fa009720a8009720a8009440a800aa
:100a18000080fa00000006000000fa009720a900f4
:100a28009720a9009440a9000080fa000000060061
:100a38000200fa00000f78009421ef009621ef00e1
:100a48001e007800400d8800400d80000000d10095
:100a5800500d88001e007800f00c8800f00c800013
:100a68000000d100000d88000080fa000000060098
:100a78000600fa00000f7800110798002207980076
:100a88009421ef009621ef001e0078000000e0009e
:100a98000b0032002e009000f00c8800f00c800053
:100aa8000000d100000d88001e009000400d880055
:100ab800400d80000000d100500d88000a0037006a
:100ac8002e009000400d8800f00c80000000d1003e
:100ad800500d88001e009000f00c8800400d80002a
:100ae8000000d100000d88000080fa000000060018
:100af8000000fa0051168000000028000080600005
:100b08000000e00002003200bdff070001003700ce
:100b1800c1ff07000080fa00000006000000fa008c
:100b2800c022ef00c822ef00e024ef00e224ef002b
:100b3800c422ef00cc22ef00c9e2a800c9c2a80075
:100b4800c9a2a800c982a8000080fa000000060017
:100b58000000fa009021ef009221ef00810c800044
:100b680000c0210001007000800c8800810c80000a
:100b780080ff2f00008060006000b300800c8800b8
:100b8800900c8000f001b300900c880092e1a9005d
:100b98009a21ef009c21ef00d10c800000c02100b9
:100ba80001007000d00c8800d10c800080ff2f005d
:100bb800008060006000b300d00c8800e00c80006a
:100bc800f001b300e00c88009ce1a900a421ef002b
:100bd800a621ef00210d800000c021000100700057
:100be800200d8800210d800080ff2f00008060000c
:100bf8006000b300200d8800300d8000f001b300c4
:100c0800300d8800a6e1a9009421ef009621ef009d
:100c1800a821ef00aa21ef009e21ef00a021ef00fc
:100c28000080fa00000006000000fa00810580003c
:100c3800f0f82f00008060000060a00080058800a8
:100c48008720a90031058000f08f2f008080600088
:100c580000302000010070003005880084c0a90021
:100c680021058000f08f2f00808060000050200058
:100c780001007000200588008440a9000080fa0067
:100c8800000006000000fa00a4ff0700e6ff0700c6
:100c9800afff0700d3fe07004040880070fe070042
:040ca800fcff370016
:020000040000fa
:100cac00000800000a00000002000000c409c40093
:100cbc0009c40900ffffff00ff0000000000000056
:00000001FF
