:020000040000fa
:080000000002040000000000f2
:020000040000fa
:04000800d80200001a
:020000040000fa
:04000c00d802000016
:020000040000fa
:04001000d802000012
:020000040000fa
:04001400d80200000e
:020000040000fa
:04001800d80200000a
:020000040000fa
:04001c00d802000006
:020000040000fa
:04002000d802000002
:020000040000fa
:04002400d8020000fe
:020000040000fa
:04002800d8020000fa
:020000040000fa
:04002c00d8020000f6
:020000040000fa
:04003000d8020000f2
:020000040000fa
:04003400d8020000ee
:020000040000fa
:04003800d8020000ea
:020000040000fa
:04003c00d8020000e6
:020000040000fa
:04004000d8020000e2
:020000040000fa
:04004400d8020000de
:020000040000fa
:04004800d8020000da
:020000040000fa
:04004c00d8020000d6
:020000040000fa
:04005000d8020000d2
:020000040000fa
:04005400d8020000ce
:020000040000fa
:04005800d8020000ca
:020000040000fa
:04005c00d8020000c6
:020000040000fa
:04006000d8020000c2
:020000040000fa
:04006400d8020000be
:020000040000fa
:04006800d8020000ba
:020000040000fa
:04006c00d8020000b6
:020000040000fa
:04007000d8020000b2
:020000040000fa
:04007400d8020000ae
:020000040000fa
:04007800d8020000aa
:020000040000fa
:04007c00d8020000a6
:020000040000fa
:04008000d8020000a2
:020000040000fa
:04008400d80200009e
:020000040000fa
:04008800d80200009a
:020000040000fa
:04008c00d802000096
:020000040000fa
:04009000d802000092
:020000040000fa
:04009400d80200008e
:020000040000fa
:04009800d80200008a
:020000040000fa
:04009c00d802000086
:020000040000fa
:0400a000d802000082
:020000040000fa
:0400a400d80200007e
:020000040000fa
:0400a800d80200007a
:020000040000fa
:0400ac00d802000076
:020000040000fa
:0400b000d802000072
:020000040000fa
:0400b400d80200006e
:020000040000fa
:0400b800d80200006a
:020000040000fa
:0400bc00d802000066
:020000040000fa
:0400c000d802000062
:020000040000fa
:0400c400d80200005e
:020000040000fa
:0400c800d80200005a
:020000040000fa
:0400cc00d802000056
:020000040000fa
:0400d000d802000052
:020000040000fa
:0400d400d80200004e
:020000040000fa
:0400d800d80200004a
:020000040000fa
:0400dc00d802000046
:020000040000fa
:0400e000d802000042
:020000040000fa
:0400e400d80200003e
:020000040000fa
:0400e800d80200003a
:020000040000fa
:0400ec00d802000036
:020000040000fa
:0400f000d802000032
:020000040000fa
:0400f400d80200002e
:020000040000fa
:0400f800d80200002a
:020000040000fa
:0400fc00d802000026
:020000040000fa
:04010000d802000021
:020000040000fa
:04010400d80200001d
:020000040000fa
:04010800d802000019
:020000040000fa
:04010c00d802000015
:020000040000fa
:04011000d802000011
:020000040000fa
:04011400d80200000d
:020000040000fa
:04011800d802000009
:020000040000fa
:04011c00d802000005
:020000040000fa
:04012000d802000001
:020000040000fa
:04012400d8020000fd
:020000040000fa
:04012800d8020000f9
:020000040000fa
:04012c00d8020000f5
:020000040000fa
:04013000d8020000f1
:020000040000fa
:04013400d8020000ed
:020000040000fa
:04013800d8020000e9
:020000040000fa
:04013c00d8020000e5
:020000040000fa
:04014000d8020000e1
:020000040000fa
:04014400d8020000dd
:020000040000fa
:04014800d8020000d9
:020000040000fa
:04014c00d8020000d5
:020000040000fa
:04015000d8020000d1
:020000040000fa
:04015400d8020000cd
:020000040000fa
:04015800d8020000c9
:020000040000fa
:04015c00d8020000c5
:020000040000fa
:04016000d8020000c1
:020000040000fa
:04016400d8020000bd
:020000040000fa
:04016800d8020000b9
:020000040000fa
:04020800d802000018
:020000040000fa
:04020c00d802000014
:020000040000fa
:04021000d802000010
:020000040000fa
:04021400d80200000c
:020000040000fa
:04021800d802000008
:020000040000fa
:04021c00d802000004
:020000040000fa
:04022000d802000000
:020000040000fa
:04022400d8020000fc
:020000040000fa
:04022800d8020000f8
:020000040000fa
:04022c00d8020000f4
:020000040000fa
:04023000d8020000f0
:020000040000fa
:04023400d8020000ec
:020000040000fa
:04023800d8020000e8
:020000040000fa
:04023c00d8020000e4
:020000040000fa
:04024000d8020000e0
:020000040000fa
:04024400d8020000dc
:020000040000fa
:04024800d8020000d8
:020000040000fa
:04024c00d8020000d4
:020000040000fa
:04025000d8020000d0
:020000040000fa
:04025400d8020000cc
:020000040000fa
:04025800d8020000c8
:020000040000fa
:04025c00d8020000c4
:020000040000fa
:04026000d8020000c0
:020000040000fa
:04026400d8020000bc
:020000040000fa
:04026800d8020000b8
:020000040000fa
:04026c00d8020000b4
:020000040000fa
:04027000d8020000b0
:020000040000fa
:04027400d8020000ac
:020000040000fa
:04027800d8020000a8
:020000040000fa
:04027c00d8020000a4
:020000040000fa
:04028000d8020000a0
:020000040000fa
:04028400d80200009c
:020000040000fa
:04028800d802000098
:020000040000fa
:04028c00d802000094
:020000040000fa
:04029000d802000090
:020000040000fa
:04029400d80200008c
:020000040000fa
:04029800d802000088
:020000040000fa
:04029c00d802000084
:020000040000fa
:0402a000d802000080
:020000040000fa
:0402a400d80200007c
:020000040000fa
:0402a800d802000078
:020000040000fa
:0402ac00d802000074
:020000040000fa
:0402b000d802000070
:020000040000fa
:0402b400d80200006c
:020000040000fa
:0402b800d802000068
:020000040000fa
:0402bc00d802000064
:020000040000fa
:0402c000d802000060
:020000040000fa
:0402c400d80200005c
:020000040000fa
:0402c800d802000058
:020000040000fa
:0402cc00d802000054
:020000040000fa
:0402d000d802000050
:020000040000fa
:0402d400d80200004c
:020000040000fa
:0402d800d802000048
:020000040000fa
:0402dc00d802000044
:020000040000fa
:0402e000d802000040
:020000040000fa
:0402e400d80200003c
:020000040000fa
:0402e800d802000038
:020000040000fa
:0402ec00d802000034
:020000040000fa
:0402f000d802000030
:020000040000fa
:0402f400d80200002c
:020000040000fa
:0402f800d802000028
:020000040000fa
:0402fc00d802000024
:020000040000fa
:04030000d80200001f
:020000040000fa
:04030400d80200001b
:020000040000fa
:04030800d802000017
:020000040000fa
:04030c00d802000013
:020000040000fa
:04031000d80200000f
:020000040000fa
:04031400d80200000b
:020000040000fa
:04031800d802000007
:020000040000fa
:04031c00d802000003
:020000040000fa
:04032000d8020000ff
:020000040000fa
:04032400d8020000fb
:020000040000fa
:04032800d8020000f7
:020000040000fa
:04032c00d8020000f3
:020000040000fa
:04033000d8020000ef
:020000040000fa
:04033400d8020000eb
:020000040000fa
:04033800d8020000e7
:020000040000fa
:04033c00d8020000e3
:020000040000fa
:04034000d8020000df
:020000040000fa
:04034400d8020000db
:020000040000fa
:04034800d8020000d7
:020000040000fa
:04034c00d8020000d3
:020000040000fa
:04035000d8020000cf
:020000040000fa
:04035400d8020000cb
:020000040000fa
:04035800d8020000c7
:020000040000fa
:04035c00d8020000c3
:020000040000fa
:04036000d8020000bf
:020000040000fa
:04036400d8020000bb
:020000040000fa
:04036800d8020000b7
:020000040000fa
:100400008f8020000eff20000e01880000000000f9
:10041000000020000000e000020032000001200087
:100420002002880014000700630007000000e000bd
:1004300003003a00a0522000010020000200370013
:100440000000200001002000810f70000100320038
:1004500014000700000020000000e000020032004d
:100460000000020000000000de02020000000000a8
:100470000040da000000fe004440a9000000200017
:100480000000e0000300320000002000a00188000e
:100490004440a800000006008a1f78008b1f7800e7
:1004a0000000060091018800800478000000eb0045
:1004b0001a003700e284440032a0b4009905ba0063
:1004c000e284440032a0b4009906ba00e2844400f9
:1004d00032a0b4000006eb00476fde00fd07b2005b
:1004e000636ce10003003a00ebff07000000eb0043
:1004f0000a003700606ce10004003a00005deb0088
:100500008b05e900fdff3e00040037006168e10053
:10051000010032000086eb000b00070019c7ba008b
:100520001905ba000e04e00003003a000a00e000da
:10053000e0ff3a0000000600fe07b2009e018800be
:100540008a047800f5ff3700395dba008b05e900b1
:100550000c003200295dba008b05e900080032006a
:100560000c00e00003003a00e284440032a0b40032
:10057000f5ff370019ddba008b05e900faff3a00f4
:100580008904e800e184440032a0b40000000600c1
:10059000000000000000000000000000000000005b
:1005a000000000000000000000000000000000004b
:0c05b0000040da000000fe000000050022
:020000040000fa
:1005bc000000fa00004b200000000100a04d2000bc
:1005cc0000000100040007000040880000382000f3
:1005dc0000000100fbff37000000fa00001880004b
:1005ec00330007001040880010188000300007000e
:1005fc0020408800201880002d0007003040880023
:10060c0010408000e10f500005003a0020408000af
:10061c000000e00002003200200020002200370021
:10062c0030408000e10f500005003a00204080006f
:10063c000000e00002003200500020001a003700d9
:10064c00104080000000e0000c00320020408000d0
:10065c000000e00007003200304080000000e000a5
:10066c0002003200100020000f0037006000200054
:10067c000d003700700020000b0037002040800078
:10068c000000e000020032003000200006003700bd
:10069c00304080000000e0000200320040002000ea
:1006ac00010037000000eb000080fa00000006009b
:1006bc000200fa00000f7800902a20009e007800bb
:1006cc00808f5000020036000000eb00070037005e
:1006dc00401520009e007800808f500002003600ec
:1006ec001000200001003700200020000080fa00dc
:1006fc00000006000000fa0000408000e30f5000ec
:10070c0024003200e30f500007003c00e10f5000c2
:10071c0014003200e10f500018003c000000e00013
:10072c000a00320039003700e50f50002500320076
:10073c00e50f50001d003500e60f50002700320079
:10074c00e70f50002b00320030003700034120002f
:10075c000001eb008000eb000000eb000300010047
:10076c002a00370003412000120020008000eb001b
:10077c000000eb00030001002400370003412000bf
:10078c000001eb00110020000000eb000300010051
:10079c001e00370003412000120020001100200031
:1007ac000000eb000300010018003700034120009b
:1007bc000001eb008000eb001000200003000100a2
:1007cc001200370003412000120020008000eb00d3
:1007dc0010002000030001000c0037000341200032
:1007ec000001eb00110020001000200003000100ac
:1007fc0006003700034120001200200011002000e9
:10080c001000200003000100000000000080fa002e
:10081c00000006000600fa00000f78000e80e800c9
:10082c000108780064004700020878001e00780078
:10083c0000407800614060000080fb0061006000b7
:10084c004d00dd006116800001d0a1000100700098
:10085c00601688000e80e8001000780000407800d8
:10086c00614060000080fb00610060004c00dd0016
:10087c006116800001c0a1000100700060168800a4
:10088c006400470010007800004078006140600070
:10089c000080fb00610060004600dd002116800036
:1008ac000160a10001007000201688000080fa0091
:1008bc00000006000600fa00000f78000e80e80029
:1008cc000108780064004700020878001e007800d8
:1008dc0000407800614060000080fb006100600017
:1008ec004900dd00611680000190a100010070003c
:1008fc00601688000e80e800100078000040780038
:10090c00614060000080fb00610060004800dd0079
:10091c00611680000180a100010070006016880043
:10092c0064004700100078000040780061406000cf
:10093c000080fb00610060004700dd006116800054
:10094c000170a10001007000601688000080fa00a0
:10095c00000006000000fa00c022ef00c822ef00e1
:10096c00e024ef00e224ef00c422ef00cc22ef00e1
:10097c00c002a800c022a800c802a800c8e2a900b2
:10098c00c902a900c922a900c0c2a900c982a90034
:10099c00c9a2a900e004a800e024a800e204a80071
:1009ac000080fa00000006000000fa0041e3a900f4
:1009bc004143a900011a8000f0cf2f000080600095
:1009cc00001a8800011a8000f0f02f00808060006f
:1009dc000007200001007000001a88004043a800a6
:1009ec00111a8000f0ff230000806000101a8800ac
:1009fc0043a3a9004363a8004343a800111a800035
:100a0c0030f82f00008060000030a000101a880021
:100a1c004203a90045e3a900211a8000f00f2e0023
:100a2c00008060000080a000201a8800f0c3b30092
:100a3c0044e3b70070002000801a880041e3a8004e
:080a4c000080fa000000060022
:020000040000fa
:100a5400000800000800000002000000010002007d
:0c0a640000020000020000000000000082
:020000040000fa
:0200000401f009
:04000c00ffff0000f2
:020000040000fa
:0200000401f009
:04001c00fdff0000e4
:00000001FF
