:020000040000fa
:080000000002040000000000f2
:020000040000fa
:0400080036030000bb
:020000040000fa
:04000c0036030000b7
:020000040000fa
:0400100036030000b3
:020000040000fa
:0400140036030000af
:020000040000fa
:0400180036030000ab
:020000040000fa
:04001c0036030000a7
:020000040000fa
:0400200036030000a3
:020000040000fa
:04002400360300009f
:020000040000fa
:04002800360300009b
:020000040000fa
:04002c003603000097
:020000040000fa
:04003000f2020000d8
:020000040000fa
:04003400360300008f
:020000040000fa
:04003800360300008b
:020000040000fa
:04003c003603000087
:020000040000fa
:0400400014030000a5
:020000040000fa
:04004400360300007f
:020000040000fa
:04004800360300007b
:020000040000fa
:04004c003603000077
:020000040000fa
:040050003603000073
:020000040000fa
:04005400360300006f
:020000040000fa
:04005800360300006b
:020000040000fa
:04005c003603000067
:020000040000fa
:040060003603000063
:020000040000fa
:04006400360300005f
:020000040000fa
:04006800360300005b
:020000040000fa
:04006c003603000057
:020000040000fa
:040070003603000053
:020000040000fa
:04007400360300004f
:020000040000fa
:04007800360300004b
:020000040000fa
:04007c003603000047
:020000040000fa
:040080003603000043
:020000040000fa
:04008400360300003f
:020000040000fa
:04008800360300003b
:020000040000fa
:04008c00d00200009e
:020000040000fa
:040090003603000033
:020000040000fa
:04009400360300002f
:020000040000fa
:04009800360300002b
:020000040000fa
:04009c003603000027
:020000040000fa
:0400a0003603000023
:020000040000fa
:0400a400360300001f
:020000040000fa
:0400a800360300001b
:020000040000fa
:0400ac003603000017
:020000040000fa
:0400b0003603000013
:020000040000fa
:0400b400360300000f
:020000040000fa
:0400b800360300000b
:020000040000fa
:0400bc003603000007
:020000040000fa
:0400c0003603000003
:020000040000fa
:0400c40036030000ff
:020000040000fa
:0400c80036030000fb
:020000040000fa
:0400cc0036030000f7
:020000040000fa
:0400d00036030000f3
:020000040000fa
:0400d40036030000ef
:020000040000fa
:0400d80036030000eb
:020000040000fa
:0400dc0036030000e7
:020000040000fa
:0400e00036030000e3
:020000040000fa
:0400e40036030000df
:020000040000fa
:0400e80036030000db
:020000040000fa
:0400ec0036030000d7
:020000040000fa
:0400f00036030000d3
:020000040000fa
:0400f40036030000cf
:020000040000fa
:0400f80036030000cb
:020000040000fa
:0400fc0036030000c7
:020000040000fa
:0401000036030000c2
:020000040000fa
:0401040036030000be
:020000040000fa
:0401080036030000ba
:020000040000fa
:04010c0036030000b6
:020000040000fa
:0401100036030000b2
:020000040000fa
:0401140036030000ae
:020000040000fa
:0401180036030000aa
:020000040000fa
:04011c0036030000a6
:020000040000fa
:0401200036030000a2
:020000040000fa
:04012400360300009e
:020000040000fa
:04012800360300009a
:020000040000fa
:04012c003603000096
:020000040000fa
:040130003603000092
:020000040000fa
:04013400360300008e
:020000040000fa
:04013800360300008a
:020000040000fa
:04013c003603000086
:020000040000fa
:040140003603000082
:020000040000fa
:04014400360300007e
:020000040000fa
:04014800360300007a
:020000040000fa
:04014c003603000076
:020000040000fa
:040150003603000072
:020000040000fa
:04015400360300006e
:020000040000fa
:04015800360300006a
:020000040000fa
:04015c003603000066
:020000040000fa
:040160003603000062
:020000040000fa
:04016400360300005e
:020000040000fa
:04016800360300005a
:020000040000fa
:0402080036030000b9
:020000040000fa
:04020c0036030000b5
:020000040000fa
:0402100036030000b1
:020000040000fa
:0402140036030000ad
:020000040000fa
:0402180036030000a9
:020000040000fa
:04021c0036030000a5
:020000040000fa
:0402200036030000a1
:020000040000fa
:04022400360300009d
:020000040000fa
:040228003603000099
:020000040000fa
:04022c003603000095
:020000040000fa
:04023000f2020000d6
:020000040000fa
:04023400360300008d
:020000040000fa
:040238003603000089
:020000040000fa
:04023c003603000085
:020000040000fa
:0402400014030000a3
:020000040000fa
:04024400360300007d
:020000040000fa
:040248003603000079
:020000040000fa
:04024c003603000075
:020000040000fa
:040250003603000071
:020000040000fa
:04025400360300006d
:020000040000fa
:040258003603000069
:020000040000fa
:04025c003603000065
:020000040000fa
:040260003603000061
:020000040000fa
:04026400360300005d
:020000040000fa
:040268003603000059
:020000040000fa
:04026c003603000055
:020000040000fa
:040270003603000051
:020000040000fa
:04027400360300004d
:020000040000fa
:040278003603000049
:020000040000fa
:04027c003603000045
:020000040000fa
:040280003603000041
:020000040000fa
:04028400360300003d
:020000040000fa
:040288003603000039
:020000040000fa
:04028c00d00200009c
:020000040000fa
:040290003603000031
:020000040000fa
:04029400360300002d
:020000040000fa
:040298003603000029
:020000040000fa
:04029c003603000025
:020000040000fa
:0402a0003603000021
:020000040000fa
:0402a400360300001d
:020000040000fa
:0402a8003603000019
:020000040000fa
:0402ac003603000015
:020000040000fa
:0402b0003603000011
:020000040000fa
:0402b400360300000d
:020000040000fa
:0402b8003603000009
:020000040000fa
:0402bc003603000005
:020000040000fa
:0402c0003603000001
:020000040000fa
:0402c40036030000fd
:020000040000fa
:0402c80036030000f9
:020000040000fa
:0402cc0036030000f5
:020000040000fa
:0402d00036030000f1
:020000040000fa
:0402d40036030000ed
:020000040000fa
:0402d80036030000e9
:020000040000fa
:0402dc0036030000e5
:020000040000fa
:0402e00036030000e1
:020000040000fa
:0402e40036030000dd
:020000040000fa
:0402e80036030000d9
:020000040000fa
:0402ec0036030000d5
:020000040000fa
:0402f00036030000d1
:020000040000fa
:0402f40036030000cd
:020000040000fa
:0402f80036030000c9
:020000040000fa
:0402fc0036030000c5
:020000040000fa
:0403000036030000c0
:020000040000fa
:0403040036030000bc
:020000040000fa
:0403080036030000b8
:020000040000fa
:04030c0036030000b4
:020000040000fa
:0403100036030000b0
:020000040000fa
:0403140036030000ac
:020000040000fa
:0403180036030000a8
:020000040000fa
:04031c0036030000a4
:020000040000fa
:0403200036030000a0
:020000040000fa
:04032400360300009c
:020000040000fa
:040328003603000098
:020000040000fa
:04032c003603000094
:020000040000fa
:040330003603000090
:020000040000fa
:04033400360300008c
:020000040000fa
:040338003603000088
:020000040000fa
:04033c003603000084
:020000040000fa
:040340003603000080
:020000040000fa
:04034400360300007c
:020000040000fa
:040348003603000078
:020000040000fa
:04034c003603000074
:020000040000fa
:040350003603000070
:020000040000fa
:04035400360300006c
:020000040000fa
:040358003603000068
:020000040000fa
:04035c003603000064
:020000040000fa
:040360003603000060
:020000040000fa
:04036400360300005c
:020000040000fa
:040368003603000058
:020000040000fa
:100400006f8120000eff20000e0188000000000018
:10041000000020000000e000020032000001200087
:100420002002880014000700920007000000e0008e
:1004300003003a00e07420000100200002003700b1
:100440000000200001002000810f70000100320038
:1004500014000700000020000000e000020032004d
:10046000000002000000000066070200000000001b
:100470000040da000000fe004440a9000000200017
:100480000000e0000300320000002000a00188000e
:100490004440a800000006008a1f78008b1f7800e7
:1004a0000000060091018800800478000000eb0045
:1004b0001a003700e284440032a0b4009905ba0063
:1004c000e284440032a0b4009906ba00e2844400f9
:1004d00032a0b4000006eb00476fde00fd07b2005b
:1004e000636ce10003003a00ebff07000000eb0043
:1004f0000a003700606ce10004003a00005deb0088
:100500008b05e900fdff3e00040037006168e10053
:10051000010032000086eb000b00070019c7ba008b
:100520001905ba000e04e00003003a000a00e000da
:10053000e0ff3a0000000600fe07b2009e018800be
:100540008a047800f5ff3700395dba008b05e900b1
:100550000c003200295dba008b05e900080032006a
:100560000c00e00003003a00e284440032a0b40032
:10057000f5ff370019ddba008b05e900faff3a00f4
:100580008904e800e184440032a0b40000000600c1
:10059000000000000000000000000000000000005b
:1005a000809fbe000000fa008720a9006040800004
:1005b00080007800400d8000808f500006003100e0
:1005c000400d80000080e900400d8800400d800053
:1005d0000000d100500d88000080fa004f00be00de
:1005e00000400600809fbe000000fa008440a90081
:1005f0008040800080007800a00c8000808f500038
:1006000006003100a00c80000080e900a00c8800ea
:10061000a00c80000000d100b00c88000080fa001f
:100620004f00be0000400600809fbe000000fa00a0
:1006300084c0a9007040800080007800f00c800029
:10064000808f500006003100f00c80000080e9002f
:10065000f00c8800f00c80000000d100000d880034
:100660000080fa004f00be00004006000040da00a3
:080670000000fe00000005007f
:020000040000fa
:100678000200fa0030002000000f7800914080004e
:10068800a0408000808f5000960032004e01070085
:10069800a0408000cf80de00f20020000300200090
:1006a800820f5000838f58008b003e0000600100cd
:1006b8000f0037001f003700230037002b003700da
:1006c800330037004a003700390037004000370050
:1006d800550037004e0037000a0037005800370031
:1006e8007d0037007c0037007b003700730037003f
:1006f800204080003a010700cd02a800cd22a800c2
:1007080075003700cd02a800cd22a8004161200065
:1007180020408000010001000000000070408000bf
:1007280080007800f00c8000808f5000fbff3900bb
:10073800690037002040800029010700cd02a80089
:10074800cd22a8006400370051408000304080006e
:1007580001017800800078001000200045010700a2
:10076800cd02a800cd22a8005b00370051408000d0
:100778003040800001017800800078000000eb0024
:100788003c010700cd02a800cd22a8005200370086
:1007980000408000000278008081eb000081eb00bf
:1007a8001100200010002000940007004a003700c4
:1007b80000408000000278008081eb000081eb009f
:1007c8008000eb000000eb008c00070042003700bf
:1007d8000040800000027800130020001200200072
:1007e8008080eb000080eb00840007003a003700af
:1007f80000408000000278008001eb000001eb005f
:100808008080eb000080eb007c000700320037009e
:10081800624b200020408000800078000000eb0040
:10082800020001002c003700624b200020408000ad
:100838008000780010002000020001002600370028
:10084800014080001e0078000088b9000000780090
:1008580000408800114080001e0078000088b90020
:100868000000780010408800214080001e007800b9
:100878000088b900000078002040880031408000de
:100888001e0078000088b900000078003040880019
:10089800414080001e0078000088b9000000780000
:1008a80040408800514080001e0078000088b90050
:1008b8000000780050408800070037000002eb0075
:1008c8008081eb000081eb008080eb000080eb0072
:1008d8004a00070000000000a04080009040880007
:1008e80001003700000000000080fa000000060048
:1008f8000200fa000000eb00000f7800501680009c
:100908004f00de00004078000080fb001e0f7000e2
:10091800501680004e00de00614060000080fb0041
:10092800000040001e0f7000501680004d00de00d1
:10093800614060000080fb004200dd001e0f700077
:10094800501680004c00de00614060000080fb0013
:100958004300dd001e0f70001e0078000080fa00c2
:10096800000006000400fa00000f78001107980044
:100978001e0078000000e00005003200c402a80054
:10098800c422a900cd02a900cd22a8000400370086
:10099800c402a900c422a800cd02a800cd22a90043
:1009a8001e009000f00c88001e009000400d88008a
:1009b8001e009000a00c88001e009000cf00de00f2
:1009c800008040000080d100000d88001e009000cb
:1009d800cf00de00008040000080d100500d88006c
:1009e8001e009000cf00de00008040000080d10093
:1009f800b00c88000080fa00000006000a00fa0027
:100a0800000f780011079800220798003307980014
:100a180044079800660007001e007800e10f4000b8
:100a2800040032001e007800004078006140600039
:100a3800010037000040eb000080fb00610060000f
:100a48004900dd00611680000190a10001007000de
:100a5800601688001e009000e10f4000040032007c
:100a68001e009000004078006140600001003700df
:100a78000040eb000080fb00610060004800dd00e2
:100a8800611680000180a1000100700060168800d6
:100a98002e009000e10f4000040032002e0090006c
:100aa8000040780061406000010037000040eb0022
:100ab8000080fb0061006000211680000100a10099
:100ac80001007000201688003e009000e10f4000f1
:100ad800040032003e009000004078006140600051
:100ae800010037000040eb000080fb00610060005f
:100af80000004000211680000110a10001007000d4
:100b0800201688002e009000e10f400003003a00f4
:100b18003e009000e10f400008003200ce00900037
:100b28008140880010408000a00c8800a00c800044
:100b38000000d100b00c8800020037009421ef00bb
:100b48009621ef001e007800e10f400003003a00f4
:100b58001e009000e10f40000f003200ce00900010
:100b68007140880010408000f00c8800f00c800074
:100b78000000d100000d8800ce0090006140880080
:100b880010408000400d8800400d80000000d1001a
:100b9800500d880004003700a821ef00aa21ef00bb
:100ba8009e21ef00a021ef000080fa00000006005f
:100bb8000000fa009720a80094c0a8009440a8005c
:100bc8000080fa00000006000000fa009720a90043
:100bd80094c0a9009440a9000080fa000000060013
:100be8000200fa00000f78009421ef009621ef0030
:100bf8001e007800400d8800400d80000000d100e4
:100c0800500d88001e007800f00c8800f00c800061
:100c18000000d100000d88000080fa0000000600e6
:100c28000200fa00000f7800e1ff07009421ef00ae
:100c38009621ef009e0078007140880010408000e7
:100c4800f00c8800f00c80000000d100000d880036
:100c58009e0078006140880010408000400d8800a8
:100c6800400d80000000d100500d88000080fa007f
:100c7800000006000600fa00000f7800110798002f
:100c8800220798009421ef009621ef001e007800bb
:100c98000000e000120032002e009000f00c8800e6
:100ca800f00c80000000d100000d88001e009000ac
:100cb800400d8800400d80000000d100500d8800d4
:100cc800c402a800c422a90040408000a00c8800eb
:100cd800a00c80000000d100b00c88001100370083
:100ce8002e009000400d8800f00c80000000d1001c
:100cf800500d88001e009000f00c8800400d800008
:100d08000000d100000d8800c402a900c422a80078
:100d180040408000a00c8800a00c80000000d1009a
:100d2800b00c88000080fa00000006000000fa00fd
:100d3800c022ef00c822ef00e024ef00e224ef0019
:100d4800c422ef00cc22ef00c9e2a800c9c2a80063
:100d5800c9a2a800c982a8000080fa000000060005
:100d68000000fa009021ef009221ef00810c800032
:100d780000c0210001007000800c8800810c8000f8
:100d880080ff2f00008060006000b300800c8800a6
:100d9800900c8000f001b300900c880092e1a9004b
:100da8009a21ef009c21ef00d10c800000c02100a7
:100db80001007000d00c8800d10c800080ff2f004b
:100dc800008060006000b300d00c8800e00c800058
:100dd800f001b300e00c88009ce1a900a421ef0019
:100de800a621ef00210d800000c021000100700045
:100df800200d8800210d800080ff2f0000806000fa
:100e08006000b300200d8800300d8000f001b300b1
:100e1800300d8800a6e1a9009421ef009621ef008b
:100e2800a821ef00aa21ef009e21ef00a021ef00ea
:100e38000080fa00000006000000fa00810580002a
:100e4800f0f82f00008060000060a0008005880096
:100e58008720a90031058000f08f2f008080600076
:100e680000302000010070003005880084c0a9000f
:100e780021058000f08f2f00808060000050200046
:100e880001007000200588008440a9000080fa0055
:040e98000000060050
:020000040000fa
:100e9c000008000016000000020000001405ac0061
:100eac000de803006009400006580200c409c400a4
:100ebc0009c40900ffffff00ff0000000000000054
:020000040000fa
:100ecc000000fa0098ff0700daff0700a3ff0700f5
:100edc00f0002000a0408800e4fd070083fe07001e
:0c0eec00a0408800e1fd0700fcff37007b
:020000040000fa
:0200000401f009
:040014005fff00008a
:00000001FF
