:020000040000fa
:080000000002040000000000f2
:020000040000fa
:0400080030030000c1
:020000040000fa
:04000c0030030000bd
:020000040000fa
:0400100030030000b9
:020000040000fa
:0400140030030000b5
:020000040000fa
:0400180030030000b1
:020000040000fa
:04001c0030030000ad
:020000040000fa
:0400200030030000a9
:020000040000fa
:0400240030030000a5
:020000040000fa
:0400280030030000a1
:020000040000fa
:04002c00300300009d
:020000040000fa
:04003000f0020000da
:020000040000fa
:040034003003000095
:020000040000fa
:040038003003000091
:020000040000fa
:04003c00300300008d
:020000040000fa
:0400400010030000a9
:020000040000fa
:040044003003000085
:020000040000fa
:040048003003000081
:020000040000fa
:04004c00300300007d
:020000040000fa
:040050003003000079
:020000040000fa
:040054003003000075
:020000040000fa
:040058003003000071
:020000040000fa
:04005c00300300006d
:020000040000fa
:040060003003000069
:020000040000fa
:040064003003000065
:020000040000fa
:040068003003000061
:020000040000fa
:04006c00300300005d
:020000040000fa
:040070003003000059
:020000040000fa
:040074003003000055
:020000040000fa
:040078003003000051
:020000040000fa
:04007c00300300004d
:020000040000fa
:040080003003000049
:020000040000fa
:040084003003000045
:020000040000fa
:040088003003000041
:020000040000fa
:04008c00d00200009e
:020000040000fa
:040090003003000039
:020000040000fa
:040094003003000035
:020000040000fa
:040098003003000031
:020000040000fa
:04009c00300300002d
:020000040000fa
:0400a0003003000029
:020000040000fa
:0400a4003003000025
:020000040000fa
:0400a8003003000021
:020000040000fa
:0400ac00300300001d
:020000040000fa
:0400b0003003000019
:020000040000fa
:0400b4003003000015
:020000040000fa
:0400b8003003000011
:020000040000fa
:0400bc00300300000d
:020000040000fa
:0400c0003003000009
:020000040000fa
:0400c4003003000005
:020000040000fa
:0400c8003003000001
:020000040000fa
:0400cc0030030000fd
:020000040000fa
:0400d00030030000f9
:020000040000fa
:0400d40030030000f5
:020000040000fa
:0400d80030030000f1
:020000040000fa
:0400dc0030030000ed
:020000040000fa
:0400e00030030000e9
:020000040000fa
:0400e40030030000e5
:020000040000fa
:0400e80030030000e1
:020000040000fa
:0400ec0030030000dd
:020000040000fa
:0400f00030030000d9
:020000040000fa
:0400f40030030000d5
:020000040000fa
:0400f80030030000d1
:020000040000fa
:0400fc0030030000cd
:020000040000fa
:0401000030030000c8
:020000040000fa
:0401040030030000c4
:020000040000fa
:0401080030030000c0
:020000040000fa
:04010c0030030000bc
:020000040000fa
:0401100030030000b8
:020000040000fa
:0401140030030000b4
:020000040000fa
:0401180030030000b0
:020000040000fa
:04011c0030030000ac
:020000040000fa
:0401200030030000a8
:020000040000fa
:0401240030030000a4
:020000040000fa
:0401280030030000a0
:020000040000fa
:04012c00300300009c
:020000040000fa
:040130003003000098
:020000040000fa
:040134003003000094
:020000040000fa
:040138003003000090
:020000040000fa
:04013c00300300008c
:020000040000fa
:040140003003000088
:020000040000fa
:040144003003000084
:020000040000fa
:040148003003000080
:020000040000fa
:04014c00300300007c
:020000040000fa
:040150003003000078
:020000040000fa
:040154003003000074
:020000040000fa
:040158003003000070
:020000040000fa
:04015c00300300006c
:020000040000fa
:040160003003000068
:020000040000fa
:040164003003000064
:020000040000fa
:040168003003000060
:020000040000fa
:0402080030030000bf
:020000040000fa
:04020c0030030000bb
:020000040000fa
:0402100030030000b7
:020000040000fa
:0402140030030000b3
:020000040000fa
:0402180030030000af
:020000040000fa
:04021c0030030000ab
:020000040000fa
:0402200030030000a7
:020000040000fa
:0402240030030000a3
:020000040000fa
:04022800300300009f
:020000040000fa
:04022c00300300009b
:020000040000fa
:04023000f0020000d8
:020000040000fa
:040234003003000093
:020000040000fa
:04023800300300008f
:020000040000fa
:04023c00300300008b
:020000040000fa
:0402400010030000a7
:020000040000fa
:040244003003000083
:020000040000fa
:04024800300300007f
:020000040000fa
:04024c00300300007b
:020000040000fa
:040250003003000077
:020000040000fa
:040254003003000073
:020000040000fa
:04025800300300006f
:020000040000fa
:04025c00300300006b
:020000040000fa
:040260003003000067
:020000040000fa
:040264003003000063
:020000040000fa
:04026800300300005f
:020000040000fa
:04026c00300300005b
:020000040000fa
:040270003003000057
:020000040000fa
:040274003003000053
:020000040000fa
:04027800300300004f
:020000040000fa
:04027c00300300004b
:020000040000fa
:040280003003000047
:020000040000fa
:040284003003000043
:020000040000fa
:04028800300300003f
:020000040000fa
:04028c00d00200009c
:020000040000fa
:040290003003000037
:020000040000fa
:040294003003000033
:020000040000fa
:04029800300300002f
:020000040000fa
:04029c00300300002b
:020000040000fa
:0402a0003003000027
:020000040000fa
:0402a4003003000023
:020000040000fa
:0402a800300300001f
:020000040000fa
:0402ac00300300001b
:020000040000fa
:0402b0003003000017
:020000040000fa
:0402b4003003000013
:020000040000fa
:0402b800300300000f
:020000040000fa
:0402bc00300300000b
:020000040000fa
:0402c0003003000007
:020000040000fa
:0402c4003003000003
:020000040000fa
:0402c80030030000ff
:020000040000fa
:0402cc0030030000fb
:020000040000fa
:0402d00030030000f7
:020000040000fa
:0402d40030030000f3
:020000040000fa
:0402d80030030000ef
:020000040000fa
:0402dc0030030000eb
:020000040000fa
:0402e00030030000e7
:020000040000fa
:0402e40030030000e3
:020000040000fa
:0402e80030030000df
:020000040000fa
:0402ec0030030000db
:020000040000fa
:0402f00030030000d7
:020000040000fa
:0402f40030030000d3
:020000040000fa
:0402f80030030000cf
:020000040000fa
:0402fc0030030000cb
:020000040000fa
:0403000030030000c6
:020000040000fa
:0403040030030000c2
:020000040000fa
:0403080030030000be
:020000040000fa
:04030c0030030000ba
:020000040000fa
:0403100030030000b6
:020000040000fa
:0403140030030000b2
:020000040000fa
:0403180030030000ae
:020000040000fa
:04031c0030030000aa
:020000040000fa
:0403200030030000a6
:020000040000fa
:0403240030030000a2
:020000040000fa
:04032800300300009e
:020000040000fa
:04032c00300300009a
:020000040000fa
:040330003003000096
:020000040000fa
:040334003003000092
:020000040000fa
:04033800300300008e
:020000040000fa
:04033c00300300008a
:020000040000fa
:040340003003000086
:020000040000fa
:040344003003000082
:020000040000fa
:04034800300300007e
:020000040000fa
:04034c00300300007a
:020000040000fa
:040350003003000076
:020000040000fa
:040354003003000072
:020000040000fa
:04035800300300006e
:020000040000fa
:04035c00300300006a
:020000040000fa
:040360003003000066
:020000040000fa
:040364003003000062
:020000040000fa
:04036800300300005e
:020000040000fa
:10040000af8020000eff20000e01880000000000d9
:10041000000020000000e000020032000001200087
:1004200020028800140007008f0007000000e00091
:1004300003003a0000742000010020000200370091
:100440000000200001002000810f70000100320038
:1004500014000700000020000000e000020032004d
:1004600000000200000000002a0702000000000057
:100470000040da000000fe004440a9000000200017
:100480000000e0000300320000002000a00188000e
:100490004440a800000006008a1f78008b1f7800e7
:1004a0000000060091018800800478000000eb0045
:1004b0001a003700e284440032a0b4009905ba0063
:1004c000e284440032a0b4009906ba00e2844400f9
:1004d00032a0b4000006eb00476fde00fd07b2005b
:1004e000636ce10003003a00ebff07000000eb0043
:1004f0000a003700606ce10004003a00005deb0088
:100500008b05e900fdff3e00040037006168e10053
:10051000010032000086eb000b00070019c7ba008b
:100520001905ba000e04e00003003a000a00e000da
:10053000e0ff3a0000000600fe07b2009e018800be
:100540008a047800f5ff3700395dba008b05e900b1
:100550000c003200295dba008b05e900080032006a
:100560000c00e00003003a00e284440032a0b40032
:10057000f5ff370019ddba008b05e900faff3a00f4
:100580008904e800e184440032a0b40000000600c1
:10059000000000000000000000000000000000005b
:1005a000809fbe000000fa008720a9000040800064
:1005b000410d8000810f500006003100400d800089
:1005c0000080e900400d8800400d80000000d1004f
:1005d000500d88000080fa004f00be000040060069
:1005e000809fbe000000fa008440a90020408000e7
:1005f000a10c8000810f500006003100a00c80008b
:100600000080e900a00c8800a00c80000000d10050
:10061000b00c88000080fa004f00be0000400600c9
:10062000809fbe000000fa0084c0a9001040800036
:10063000f10c8000810f500006003100f00c8000aa
:100640000080e900f00c8800f00c80000000d10070
:10065000000d88000080fa004f00be000040060038
:0c0660000040da000000fe000000050071
:020000040000fa
:10066c000000fa003140800040408000808f500034
:10067c006c0032003b01070040408000cf80de0060
:10068c00f200200003002000820f5000838f5800de
:10069c0061003e00006001000f0037001e003700b3
:1006ac0022003700280037002e00370042003700a8
:1006bc0033003700390037004b0037004500370056
:1006cc000a0037005400370053003700520037003f
:1006dc005100370049003700803e200027010700f9
:1006ec00cd02a800cd22a8004b003700cd02a800f7
:1006fc00cd22a800415e2000803e200001000100b8
:10070c000000000010408000f10c8000810f5000b0
:10071c00fcff390040003700803e20001701070025
:10072c00cd02a800cd22a8003b0037008225200076
:10073c00019620001000200035010700cd02a80012
:10074c00cd22a8003400370082252000019620001d
:10075c000000eb002e010700cd02a800cd22a8005e
:10076c002d003700244e20008081eb000081eb002f
:10077c001100200010002000770007002600370031
:10078c00244e20008081eb000081eb008000eb0008
:10079c000000eb00700007001f003700244e200003
:1007ac0013002000120020008080eb000080eb0082
:1007bc006900070018003700244e20008001eb0070
:1007cc000001eb008080eb000080eb006200070072
:1007dc001100370082452000813e20000000eb0014
:1007ec00020001000c00370082452000813e2000f1
:1007fc001000200002000100070037000002eb008f
:10080c008081eb000081eb008080eb000080eb002e
:10081c00510007000000000040408000304088007c
:10082c0001003700000000000080fa000000060004
:10083c000200fa000000eb00000f78005016800058
:10084c004f00de00004078000080fb001e0f70009f
:10085c00501680004e00de00614060000080fb00fe
:10086c00000040001e0f7000501680004d00de008e
:10087c00614060000080fb004200dd001e0f700034
:10088c00501680004c00de00614060000080fb00d0
:10089c004300dd001e0f70001e0078000080fa007f
:1008ac00000006000400fa00000f78000e80e8003b
:1008bc00010878001e0078000000e00005003200fe
:1008cc00c402a800c422a900cd02a900cd22a80010
:1008dc0004003700c402a900c422a800cd02a8005d
:1008ec00cd22a9000e80e80010007800f00c8800e2
:1008fc000e80e80010007800400d88000e80e800a3
:10090c0010007800a00c88000e80e8001000780021
:10091c00cf00de00008040000080d100000d880078
:10092c000e80e80010007800cf00de000080400050
:10093c000080d100500d88000e80e8001000780077
:10094c00cf00de00008040000080d100b00c880099
:10095c000080fa00000006000a00fa00000f780080
:10096c000e80e80001087800640047000208780057
:10097c006600470003087800680047000408780008
:10098c00720007001e007800e10f400004003200e6
:10099c001e007800004078006140600001003700c4
:1009ac000040eb000080fb00610060004900dd00ae
:1009bc00611680000190a100010070006016880093
:1009cc000e80e80010007800e10f400005003200b6
:1009dc000e80e80010007800004078006140600054
:1009ec00010037000040eb000080fb00610060005c
:1009fc004800dd00611680000180a100010070003c
:100a0c00601688006400470010007800e10f400079
:100a1c0005003200640047001000780000407800a8
:100a2c0061406000010037000040eb000080fb00db
:100a3c0061006000211680000100a100010070001f
:100a4c00201688006600470010007800e10f400077
:100a5c000500320066004700100078000040780066
:100a6c0061406000010037000040eb000080fb009b
:100a7c006100600000004000211680000110a10000
:100a8c0001007000201688006400470010007800f8
:100a9c00e10f400004003a006600470010007800a7
:100aac00e10f400009003200680047009000780018
:100abc002140880080bb2000a00c8800a00c800086
:100acc000000d100b00c8800020037009421ef0028
:100adc009621ef001e007800e10f400004003a0060
:100aec000e80e80010007800e10f40001100320089
:100afc0068004700900078001140880080bb2000ff
:100b0c00f00c8800f00c80000000d100000d880073
:100b1c0068004700900078000140880080bb2000ee
:100b2c00400d8800400d80000000d100500d880061
:100b3c0004003700a821ef00aa21ef009e21ef004e
:100b4c00a021ef000080fa00000006000000fa006f
:100b5c009720a80094c0a8009440a8000080fa0038
:100b6c00000006000000fa009720a90094c0a9001c
:100b7c009440a9000080fa00000006000200fa0070
:100b8c00000f78009421ef009621ef001e007800f2
:100b9c00400d8800400d80000000d100500d8800f1
:100bac001e007800f00c8800f00c80000000d100d2
:100bbc00000d88000080fa00000006000200fa0018
:100bcc00000f7800e1ff07009421ef009621ef0061
:100bdc009e0078001140880080bb2000f00c88003b
:100bec00f00c80000000d100000d88009e00780001
:100bfc000140880080bb2000400d8800400d800023
:100c0c000000d100500d88000080fa0000000600a2
:100c1c000600fa00000f78000e80e800010878004a
:100c2c0064004700020878009421ef009621ef0041
:100c3c001e0078000000e000140032006400470041
:100c4c0010007800f00c8800f00c80000000d1003f
:100c5c00000d88000e80e80010007800400d880020
:100c6c00400d80000000d100500d8800c402a80087
:100c7c00c422a90000642000a00c8800a00c8000f5
:100c8c000000d100b00c880013003700640047004e
:100c9c0010007800400d8800f00c80000000d1009e
:100cac00500d88000e80e80010007800f00c8800d1
:100cbc00400d80000000d100000d8800c402a90086
:100ccc00c422a80000642000a00c8800a00c8000a6
:100cdc000000d100b00c88000080fa000000060073
:100cec000000fa00c022ef00c822ef00e024ef0061
:100cfc00e224ef00c422ef00cc22ef00c9e2a800ee
:100d0c00c9c2a800c9a2a800c982a8000080fa0024
:100d1c00000006000000fa009021ef009221ef0085
:100d2c00810c800000c0210001007000800c880044
:100d3c00810c800080ff2f00008060006000b300f9
:100d4c00800c8800900c8000f001b300900c88009f
:100d5c0092e1a9009a21ef009c21ef00d10c8000b8
:100d6c0000c0210001007000d00c8800d10c800064
:100d7c0080ff2f00008060006000b300d00c880062
:100d8c00e00c8000f001b300e00c88009ce1a900ad
:100d9c00a421ef00a621ef00210d800000c021004e
:100dac0001007000200d8800210d800080ff2f00b5
:100dbc00008060006000b300200d8800300d8000c2
:100dcc00f001b300300d8800a6e1a9009421ef00da
:100ddc009621ef00a821ef00aa21ef009e21ef0041
:100dec00a021ef000080fa00000006000000fa00cd
:100dfc0081058000f0f82f00008060000060a000ea
:100e0c00800588008720a90031058000f08f2f0015
:100e1c0080806000003020000100700030058800e8
:100e2c0084c0a90021058000f08f2f008080600015
:100e3c000050200001007000200588008440a900ab
:100e4c000080fa00000006000000fa00a4ff070072
:100e5c00e6ff0700afff0700f000200040408800cd
:100e6c00fffd070072fe070040408800fcfd0700f4
:040e7c00fcff370040
:020000040000fa
:100e8000000800000a00000002000000c409c400bd
:100e900009c40900ffffff00ff0000000000000080
:00000001FF
