:020000040000fa
:080000000002040000000000f2
:020000040000fa
:04000800f4020000fe
:020000040000fa
:04000c00f4020000fa
:020000040000fa
:04001000f4020000f6
:020000040000fa
:04001400f4020000f2
:020000040000fa
:04001800f4020000ee
:020000040000fa
:04001c00f4020000ea
:020000040000fa
:04002000f4020000e6
:020000040000fa
:04002400f4020000e2
:020000040000fa
:04002800f4020000de
:020000040000fa
:04002c00f4020000da
:020000040000fa
:04003000f4020000d6
:020000040000fa
:04003400dc020000ea
:020000040000fa
:04003800f4020000ce
:020000040000fa
:04003c00f4020000ca
:020000040000fa
:04004000f4020000c6
:020000040000fa
:04004400f4020000c2
:020000040000fa
:04004800cc020000e6
:020000040000fa
:04004c00f4020000ba
:020000040000fa
:04005000f4020000b6
:020000040000fa
:04005400f4020000b2
:020000040000fa
:04005800f4020000ae
:020000040000fa
:04005c00f4020000aa
:020000040000fa
:04006000f4020000a6
:020000040000fa
:04006400f4020000a2
:020000040000fa
:04006800f40200009e
:020000040000fa
:04006c00f40200009a
:020000040000fa
:04007000f402000096
:020000040000fa
:04007400f402000092
:020000040000fa
:04007800f40200008e
:020000040000fa
:04007c00f40200008a
:020000040000fa
:04008000f402000086
:020000040000fa
:04008400f402000082
:020000040000fa
:04008800f40200007e
:020000040000fa
:04008c00f40200007a
:020000040000fa
:04009000f402000076
:020000040000fa
:04009400f402000072
:020000040000fa
:04009800f40200006e
:020000040000fa
:04009c00f40200006a
:020000040000fa
:0400a000f402000066
:020000040000fa
:0400a400f402000062
:020000040000fa
:0400a800f40200005e
:020000040000fa
:0400ac00f40200005a
:020000040000fa
:0400b000f402000056
:020000040000fa
:0400b400f402000052
:020000040000fa
:0400b800f40200004e
:020000040000fa
:0400bc00f40200004a
:020000040000fa
:0400c000f402000046
:020000040000fa
:0400c400f402000042
:020000040000fa
:0400c800f40200003e
:020000040000fa
:0400cc00f40200003a
:020000040000fa
:0400d000f402000036
:020000040000fa
:0400d400f402000032
:020000040000fa
:0400d800f40200002e
:020000040000fa
:0400dc00f40200002a
:020000040000fa
:0400e000f402000026
:020000040000fa
:0400e400f402000022
:020000040000fa
:0400e800f40200001e
:020000040000fa
:0400ec00f40200001a
:020000040000fa
:0400f000f402000016
:020000040000fa
:0400f400f402000012
:020000040000fa
:0400f800f40200000e
:020000040000fa
:0400fc00f40200000a
:020000040000fa
:04010000f402000005
:020000040000fa
:04010400f402000001
:020000040000fa
:04010800f4020000fd
:020000040000fa
:04010c00f4020000f9
:020000040000fa
:04011000f4020000f5
:020000040000fa
:04011400f4020000f1
:020000040000fa
:04011800f4020000ed
:020000040000fa
:04011c00f4020000e9
:020000040000fa
:04012000f4020000e5
:020000040000fa
:04012400f4020000e1
:020000040000fa
:04012800f4020000dd
:020000040000fa
:04012c00f4020000d9
:020000040000fa
:04013000f4020000d5
:020000040000fa
:04013400f4020000d1
:020000040000fa
:04013800f4020000cd
:020000040000fa
:04013c00f4020000c9
:020000040000fa
:04014000f4020000c5
:020000040000fa
:04014400f4020000c1
:020000040000fa
:04014800f4020000bd
:020000040000fa
:04014c00f4020000b9
:020000040000fa
:04015000f4020000b5
:020000040000fa
:04015400f4020000b1
:020000040000fa
:04015800f4020000ad
:020000040000fa
:04015c00f4020000a9
:020000040000fa
:04016000f4020000a5
:020000040000fa
:04016400f4020000a1
:020000040000fa
:04016800f40200009d
:020000040000fa
:04020800f4020000fc
:020000040000fa
:04020c00f4020000f8
:020000040000fa
:04021000f4020000f4
:020000040000fa
:04021400f4020000f0
:020000040000fa
:04021800f4020000ec
:020000040000fa
:04021c00f4020000e8
:020000040000fa
:04022000f4020000e4
:020000040000fa
:04022400f4020000e0
:020000040000fa
:04022800f4020000dc
:020000040000fa
:04022c00f4020000d8
:020000040000fa
:04023000f4020000d4
:020000040000fa
:04023400dc020000e8
:020000040000fa
:04023800f4020000cc
:020000040000fa
:04023c00f4020000c8
:020000040000fa
:04024000f4020000c4
:020000040000fa
:04024400f4020000c0
:020000040000fa
:04024800cc020000e4
:020000040000fa
:04024c00f4020000b8
:020000040000fa
:04025000f4020000b4
:020000040000fa
:04025400f4020000b0
:020000040000fa
:04025800f4020000ac
:020000040000fa
:04025c00f4020000a8
:020000040000fa
:04026000f4020000a4
:020000040000fa
:04026400f4020000a0
:020000040000fa
:04026800f40200009c
:020000040000fa
:04026c00f402000098
:020000040000fa
:04027000f402000094
:020000040000fa
:04027400f402000090
:020000040000fa
:04027800f40200008c
:020000040000fa
:04027c00f402000088
:020000040000fa
:04028000f402000084
:020000040000fa
:04028400f402000080
:020000040000fa
:04028800f40200007c
:020000040000fa
:04028c00f402000078
:020000040000fa
:04029000f402000074
:020000040000fa
:04029400f402000070
:020000040000fa
:04029800f40200006c
:020000040000fa
:04029c00f402000068
:020000040000fa
:0402a000f402000064
:020000040000fa
:0402a400f402000060
:020000040000fa
:0402a800f40200005c
:020000040000fa
:0402ac00f402000058
:020000040000fa
:0402b000f402000054
:020000040000fa
:0402b400f402000050
:020000040000fa
:0402b800f40200004c
:020000040000fa
:0402bc00f402000048
:020000040000fa
:0402c000f402000044
:020000040000fa
:0402c400f402000040
:020000040000fa
:0402c800f40200003c
:020000040000fa
:0402cc00f402000038
:020000040000fa
:0402d000f402000034
:020000040000fa
:0402d400f402000030
:020000040000fa
:0402d800f40200002c
:020000040000fa
:0402dc00f402000028
:020000040000fa
:0402e000f402000024
:020000040000fa
:0402e400f402000020
:020000040000fa
:0402e800f40200001c
:020000040000fa
:0402ec00f402000018
:020000040000fa
:0402f000f402000014
:020000040000fa
:0402f400f402000010
:020000040000fa
:0402f800f40200000c
:020000040000fa
:0402fc00f402000008
:020000040000fa
:04030000f402000003
:020000040000fa
:04030400f4020000ff
:020000040000fa
:04030800f4020000fb
:020000040000fa
:04030c00f4020000f7
:020000040000fa
:04031000f4020000f3
:020000040000fa
:04031400f4020000ef
:020000040000fa
:04031800f4020000eb
:020000040000fa
:04031c00f4020000e7
:020000040000fa
:04032000f4020000e3
:020000040000fa
:04032400f4020000df
:020000040000fa
:04032800f4020000db
:020000040000fa
:04032c00f4020000d7
:020000040000fa
:04033000f4020000d3
:020000040000fa
:04033400f4020000cf
:020000040000fa
:04033800f4020000cb
:020000040000fa
:04033c00f4020000c7
:020000040000fa
:04034000f4020000c3
:020000040000fa
:04034400f4020000bf
:020000040000fa
:04034800f4020000bb
:020000040000fa
:04034c00f4020000b7
:020000040000fa
:04035000f4020000b3
:020000040000fa
:04035400f4020000af
:020000040000fa
:04035800f4020000ab
:020000040000fa
:04035c00f4020000a7
:020000040000fa
:04036000f4020000a3
:020000040000fa
:04036400f40200009f
:020000040000fa
:04036800f40200009b
:020000040000fa
:100400004f8120000eff20000e0188000000000038
:10041000000020000000e000020032000001200087
:100420002002880014000700710007000000e000af
:1004300003003a00c09a20000100200002003700ab
:100440000000200001002000810f70000100320038
:1004500014000700000020000000e000020032004d
:1004600000000200000000008a09020000000000f5
:100470000040da000000fe004440a9000000200017
:100480000000e0000300320000002000a00188000e
:100490004440a800000006008a1f78008b1f7800e7
:1004a0000000060091018800800478000000eb0045
:1004b0001a003700e284440032a0b4009905ba0063
:1004c000e284440032a0b4009906ba00e2844400f9
:1004d00032a0b4000006eb00476fde00fd07b2005b
:1004e000636ce10003003a00ebff07000000eb0043
:1004f0000a003700606ce10004003a00005deb0088
:100500008b05e900fdff3e00040037006168e10053
:10051000010032000086eb000b00070019c7ba008b
:100520001905ba000e04e00003003a000a00e000da
:10053000e0ff3a0000000600fe07b2009e018800be
:100540008a047800f5ff3700395dba008b05e900b1
:100550000c003200295dba008b05e900080032006a
:100560000c00e00003003a00e284440032a0b40032
:10057000f5ff370019ddba008b05e900faff3a00f4
:100580008904e800e184440032a0b40000000600c1
:1005900000000000000000000000fa008500a90033
:1005a00013e1a9009500a9000a21ef000a28ef0035
:1005b0000080fa0000400600801f78000000fa006a
:1005c0008460a90010002000904088004040800016
:1005d0000000a200404088000021ef000080fa00e7
:1005e0004f007800004006000040da000000fe00e6
:0405f0000000050002
:020000040000fa
:1005f4000000fa0001188000a02a2000808f50001b
:100604001b00360011188000a02a2000808f5000a3
:100614001700360021188000a02a2000808f500087
:10062400130036004118800010172000808f5000fe
:100634000c003600c118800070112000808f50001b
:100644000800360031188000b0122000808f50005e
:1006540004003600d118800030102000808f500034
:1006640002003e00100020000200370001003700a5
:100674000000eb000080fa00000006000000fa0011
:10068400a0188000b801070000f0a7000000ea00ed
:100694000000ea004f00de000080fa0000000600bf
:1006a4000000fa000118800040152000808f5000df
:1006b400080036001118800040152000808f50007b
:1006c400040036002118800040152000808f50005f
:1006d40006003e0041188000700c2000808f5000fe
:1006e40002003e0010002000010037000000eb0073
:1006f4000080fa00000006000000fa00dfff070097
:100704000000e00018003200900020000040880043
:10071400a6010700802520008301070000000000d7
:100724001118800050152000808f5000fcff3e00ff
:100734001000200000408800020037004a01070032
:100744009a01070031188000901a2000808f500011
:10075400faff3e00f00020000040880093010700eb
:10076400a03b2000000001000080fa000000060009
:100774002600fa00610020006e004700010878009e
:10078400f2004700090009008018eb001024200043
:10079400000f7800813920000e80e80001087800fd
:1007a4008000eb0064004700010878008000eb0043
:1007b40066004700010878007b0037001e007800bf
:1007c400b00c880080252000570107000e80e80047
:1007d400100078001e0050000000e00001003d0001
:1007e40063004000c280de0070004700010878000a
:1007f4008000eb006a004700010878002100370000
:10080400b00c8000800078006a0047001000780077
:10081400000040000000470072004000010878001a
:10082400e0188000800078006a004700100078001b
:1008340065004000000040000000470072004000d6
:10084400010878006a00470010007800e50f5000a6
:1008540007003200b10c80007000470010007800df
:1008640000804000b00c8800c01220002e01070058
:100874006a004700100078008000e8006a00470022
:10088400010878006a00470010007800e40f500067
:10089400dbff34008000eb006c00470001087800a7
:1008a4001b0037006c004700100078006500400012
:1008b40000004000000047007200400090007800f3
:1008c4006400470010007800808f50000b00340053
:1008d4006c004700100078006500400000004000f4
:1008e4008000470064004700f2804000110878004f
:1008f40066004700ec004700110878006c004700d0
:10090400100078008000e8006c00470001087800bf
:100914006c00470010007800e40f5000e1ff340041
:1009240066004700100078000000e00003003a0071
:1009340011002000660047000108780066004700a7
:1009440010007800e40f500003003a00310020004a
:100954006600470001087800660047001000780030
:100964000000e90000004000000047007200400061
:10097400100f780066004700100078000000e800bf
:1009840000004000800047000e80e800f280400034
:100994001108780068004700100078008000e80023
:1009a400680047000108780068004700900078005c
:1009b4006e00470010007800808f50007fff3500e4
:1009c4006600470010007800000040000000470067
:1009d4007200400010007800b00c8800cd22a800fe
:1009e400feff37000000fa002dff07000000e000c2
:1009f40034003200401f2000cb000700f00020002c
:100a040000408800e90007009118800030062000ab
:100a1400808f500010003e007000200000408800cd
:100a2400e200070070172000bf000700f00020005c
:100a340000408800dd00070080392000b00c8800e9
:100a4400007d2000b800070050002000004088000e
:100a5400d60007000f003700500020000040880037
:100a6400d200070070172000af000700f00020003c
:100a740000408800cd000700601d2000b00c8800f5
:100a8400007d2000a80007007000200000408800be
:100a9400c6000700d02a2000b00c88000000000027
:100aa40011188000a02a2000808f5000fcff3e0017
:100ab4001000200000408800bc000700a02820008f
:100ac400990007000080fa00000006000000fa0008
:100ad40000408000e50f50001c003200e50f50007c
:100ae40003003c00e40f5000060032005c003700b5
:100af400e60f500027003200e70f500037003200a5
:100b04005700370031188000700c2000808f50008f
:100b140044003e00c1188000b0122000808f5000b5
:100b240003003e0070002000004088004c003700a5
:100b340041188000b0122000808f50003b003e001e
:100b4400500020000040880045003700c118800094
:100b5400700c2000808f500036003e003118800059
:100b6400b0122000808f500003003e00600020007f
:100b7400004088003a003700d1188000b0122000ed
:100b8400808f50002d003e0040002000004088006f
:100b940033003700d1188000700c2000808f500083
:100ba40028003e0041188000b0122000808f5000c1
:100bb40003003e0050002000004088002800370059
:100bc400c1188000b0122000808f50001f003e002a
:100bd4007000200000408800210037004118800088
:100be400700c2000808f50001a003e0031188000e5
:100bf400b0122000808f500003003e0060002000ef
:100c04000040880016003700d1188000b012200080
:100c1400808f500011003e004000200000408800fa
:100c24000f003700000000000d0037000000000036
:100c34000b0037000000000009003700000000002e
:100c44000700370000000000050037000000000026
:100c5400030037000000000001003700000000001e
:100c64000080fa00000006000000fa00001880006e
:100c74003d00070060408800101880003a0007001b
:100c8400204088002018800037000700704088004a
:100c940000408000e20f500010003200e30f5000cb
:100ca40014003200e10f50001d003a006040800043
:100cb400e20f500003003a0030002000004088009a
:100cc4001700370070408000e20f50000f003a0018
:100cd40020002000004088001100370020408000e0
:100ce400e20f50000b003a00100020000040880082
:100cf4000b00370020408000e20f500007003a004c
:100d040010002000004088000500370000000000ab
:100d1400030037000000000001003700000000005d
:100d24000080fa00000006000200fa00000f7800bc
:100d340005e1a800e0ff2f00100888000021ef0063
:100d4400000000001e0078006f00b9000000780069
:100d540001088000810f5000faff3e0005e1a90060
:100d64000080fa00000006000200fa00000f78007c
:100d7400902a20009e007800808f500002003600e8
:100d84000000eb0007003700401520009e007800ab
:100d9400808f500002003600100020000100370050
:100da400200020000080fa00000006000000fa0085
:100db4001140800000408000808f50005d003200b0
:100dc40000408000cf80de00f200200003002000fd
:100dd400820f5000838f580053003e0000600100d2
:100de4000f00370014003700190037001e003700c9
:100df40023003700280037002d0037003200370069
:100e0400370037003c003700470037004600370002
:100e14004500370044003700430037003c003700ea
:100e24008001eb000001eb008000eb000000eb0010
:100e3400430007003c003700130020000001eb00d2
:100e44008000eb000000eb003d0007003600370097
:100e54008001eb00120020008000eb000000eb009a
:100e64003700070030003700130020001200200074
:100e74008000eb000000eb00310007002a0037007f
:100e84008001eb000001eb00110020000000eb00ea
:100e94002b00070024003700130020000001eb00a2
:100ea400110020000000eb00250007001e003700a1
:100eb4008001eb0012002000110020000000eb0074
:100ec4001f00070018003700130020001200200044
:100ed4001100200010002000190007001200370044
:100ee4008001eb000001eb008000eb00100020000b
:100ef400130007000c003700130020000001eb0072
:100f04008000eb00100020000d00070006003700f1
:100f14001300200012002000110020001000200007
:100f24000700070000000000004080001040880017
:100f340001003700000000000080fa0000000600f5
:100f44000800fa00000f78000e80e800010878001d
:100f54006400470002087800660047000308780030
:100f6400660047001000780000407800614060008f
:100f74000080fb00610060004400dd006116800019
:100f84000140a10001007000601688006400470061
:100f94001000780000407800614060000080fb0091
:100fa400610060004400dd00211680000140a100c2
:100fb40001007000201688000e80e8001000780000
:100fc40000407800614060000080fb006100600028
:100fd4004800dd00611680000180a100010070005e
:100fe400601688001e0078000040780061406000b0
:100ff4000080fb00610060004700dd006116800096
:101004000170a10001007000601688000080fa00e1
:10101400000006000000fa0031188000b012200021
:10102400808f500002003e00cc82a80001003700ef
:10103400cc82a900c1188000b0122000808f50001b
:1010440002003e00c482a80001003700c482a90047
:10105400d1188000b0122000808f500002003e00a2
:10106400cd02a80001003700cd02a900411880007c
:10107400b0122000808f500002003e00cce2a80095
:10108400e5ff3700cce2a900e3ff37000000fa00d7
:101094000100370000000000f3fe07004118800043
:1010a400b0122000808f50000c003e00cce2a8005b
:1010b400c1188000b0122000808f500001003e0053
:1010c400c482a800004080000000e000f1ff3a0064
:1010d400cc82a800cd02a800efff3700cc82a90083
:1010e400c482a900cd02a900cce2a900eaff37001e
:1010f4000000fa00001880001bff07006040880011
:101104001018800018ff0700204088002018800075
:1011140015ff070070408800624080002140800075
:10112400704080008001eb0085ff0700f1ff37006d
:101134000000fa00c022ef00c822ef00e024ef0014
:10114400e224ef00c422ef00cc22ef00c002a8008a
:10115400c022a800c802a800c9e2a800c9c2a80009
:10116400c062a800c822a800c842a800c042a800c3
:10117400c982a800e004a800e024a800e204a800b2
:10118400e3e4a800e3c4a800e064a800e224a80003
:10119400e244a800e044a800e384a8000080fa0028
:1011a400000006000000fa0041e3a9004143a90041
:1011b400011a8000f0cf2f0000806000001a880020
:1011c400011a8000f0f02f008080600000072000ea
:1011d40001007000001a88004043a800111a800022
:1011e400f0ff230000806000101a880043a3a900c8
:1011f4004363a8004343a800111a800030f82f006d
:10120400808060004002200001007000101a8800f5
:101214004203a90045e3a900211a8000f00f2e0023
:10122400008060000080a000201a880000c2b30083
:1012340044e3b700f0612700801a880041e3a80066
:101244000080fa00000006000000fa000421a90052
:10125400210880000003200001007000200888009d
:1012640020a127001008880005e1a90021058000bd
:10127400f0ff28000080600000e0a0002005880046
:101284008460a9009460a8000021ef0011e1a80087
:1012940081088000f0fc2f00008060000040a00066
:1012a400800888001021a900f070220060088800de
:1012b4000080fa00000006000000fa009021ef0010
:1012c4009221ef00810c8000f03f2e00008060002e
:1012d400800c8800810c800080ff2f00008060005b
:1012e4006000b300800c8800900c8000f001b30013
:1012f400900c880092e1a900f0702200a00c8800f4
:10130400d02a2000b00c88000080fa0000000600fb
:101314000000fa00213a8000f08f2f000080600066
:10132400203a880082ff07009eff0700c6ff0700df
:10133400e1ff0700f0002000004088009bfe07004a
:1013440049fe070099fe0700a6fd0700eafc070016
:04135400fbff370064
:020000040000fa
:10135800000800000c000000020000000100ff006f
:10136800ff020000ffff0100000100000c08000060
:0c13780008000000000000000000000061
:020000040000fa
:0200000401f009
:04000c00dfff000012
:020000040000fa
:0200000401f009
:04001000fbff0000f2
:00000001FF
