:020000040000fa
:080000000002040000000000f2
:020000040000fa
:04000800e40200000e
:020000040000fa
:04000c00e40200000a
:020000040000fa
:04001000e402000006
:020000040000fa
:04001400e402000002
:020000040000fa
:04001800e4020000fe
:020000040000fa
:04001c00e4020000fa
:020000040000fa
:04002000e4020000f6
:020000040000fa
:04002400e4020000f2
:020000040000fa
:04002800e4020000ee
:020000040000fa
:04002c00e4020000ea
:020000040000fa
:04003000e4020000e6
:020000040000fa
:04003400cc020000fa
:020000040000fa
:04003800e4020000de
:020000040000fa
:04003c00e4020000da
:020000040000fa
:04004000e4020000d6
:020000040000fa
:04004400e4020000d2
:020000040000fa
:04004800e4020000ce
:020000040000fa
:04004c00e4020000ca
:020000040000fa
:04005000e4020000c6
:020000040000fa
:04005400e4020000c2
:020000040000fa
:04005800e4020000be
:020000040000fa
:04005c00e4020000ba
:020000040000fa
:04006000e4020000b6
:020000040000fa
:04006400e4020000b2
:020000040000fa
:04006800e4020000ae
:020000040000fa
:04006c00e4020000aa
:020000040000fa
:04007000e4020000a6
:020000040000fa
:04007400e4020000a2
:020000040000fa
:04007800e40200009e
:020000040000fa
:04007c00e40200009a
:020000040000fa
:04008000e402000096
:020000040000fa
:04008400e402000092
:020000040000fa
:04008800e40200008e
:020000040000fa
:04008c00e40200008a
:020000040000fa
:04009000e402000086
:020000040000fa
:04009400e402000082
:020000040000fa
:04009800e40200007e
:020000040000fa
:04009c00e40200007a
:020000040000fa
:0400a000e402000076
:020000040000fa
:0400a400e402000072
:020000040000fa
:0400a800e40200006e
:020000040000fa
:0400ac00e40200006a
:020000040000fa
:0400b000e402000066
:020000040000fa
:0400b400e402000062
:020000040000fa
:0400b800e40200005e
:020000040000fa
:0400bc00e40200005a
:020000040000fa
:0400c000e402000056
:020000040000fa
:0400c400e402000052
:020000040000fa
:0400c800e40200004e
:020000040000fa
:0400cc00e40200004a
:020000040000fa
:0400d000e402000046
:020000040000fa
:0400d400e402000042
:020000040000fa
:0400d800e40200003e
:020000040000fa
:0400dc00e40200003a
:020000040000fa
:0400e000e402000036
:020000040000fa
:0400e400e402000032
:020000040000fa
:0400e800e40200002e
:020000040000fa
:0400ec00e40200002a
:020000040000fa
:0400f000e402000026
:020000040000fa
:0400f400e402000022
:020000040000fa
:0400f800e40200001e
:020000040000fa
:0400fc00e40200001a
:020000040000fa
:04010000e402000015
:020000040000fa
:04010400e402000011
:020000040000fa
:04010800e40200000d
:020000040000fa
:04010c00e402000009
:020000040000fa
:04011000e402000005
:020000040000fa
:04011400e402000001
:020000040000fa
:04011800e4020000fd
:020000040000fa
:04011c00e4020000f9
:020000040000fa
:04012000e4020000f5
:020000040000fa
:04012400e4020000f1
:020000040000fa
:04012800e4020000ed
:020000040000fa
:04012c00e4020000e9
:020000040000fa
:04013000e4020000e5
:020000040000fa
:04013400e4020000e1
:020000040000fa
:04013800e4020000dd
:020000040000fa
:04013c00e4020000d9
:020000040000fa
:04014000e4020000d5
:020000040000fa
:04014400e4020000d1
:020000040000fa
:04014800e4020000cd
:020000040000fa
:04014c00e4020000c9
:020000040000fa
:04015000e4020000c5
:020000040000fa
:04015400e4020000c1
:020000040000fa
:04015800e4020000bd
:020000040000fa
:04015c00e4020000b9
:020000040000fa
:04016000e4020000b5
:020000040000fa
:04016400e4020000b1
:020000040000fa
:04016800e4020000ad
:020000040000fa
:04020800e40200000c
:020000040000fa
:04020c00e402000008
:020000040000fa
:04021000e402000004
:020000040000fa
:04021400e402000000
:020000040000fa
:04021800e4020000fc
:020000040000fa
:04021c00e4020000f8
:020000040000fa
:04022000e4020000f4
:020000040000fa
:04022400e4020000f0
:020000040000fa
:04022800e4020000ec
:020000040000fa
:04022c00e4020000e8
:020000040000fa
:04023000e4020000e4
:020000040000fa
:04023400cc020000f8
:020000040000fa
:04023800e4020000dc
:020000040000fa
:04023c00e4020000d8
:020000040000fa
:04024000e4020000d4
:020000040000fa
:04024400e4020000d0
:020000040000fa
:04024800e4020000cc
:020000040000fa
:04024c00e4020000c8
:020000040000fa
:04025000e4020000c4
:020000040000fa
:04025400e4020000c0
:020000040000fa
:04025800e4020000bc
:020000040000fa
:04025c00e4020000b8
:020000040000fa
:04026000e4020000b4
:020000040000fa
:04026400e4020000b0
:020000040000fa
:04026800e4020000ac
:020000040000fa
:04026c00e4020000a8
:020000040000fa
:04027000e4020000a4
:020000040000fa
:04027400e4020000a0
:020000040000fa
:04027800e40200009c
:020000040000fa
:04027c00e402000098
:020000040000fa
:04028000e402000094
:020000040000fa
:04028400e402000090
:020000040000fa
:04028800e40200008c
:020000040000fa
:04028c00e402000088
:020000040000fa
:04029000e402000084
:020000040000fa
:04029400e402000080
:020000040000fa
:04029800e40200007c
:020000040000fa
:04029c00e402000078
:020000040000fa
:0402a000e402000074
:020000040000fa
:0402a400e402000070
:020000040000fa
:0402a800e40200006c
:020000040000fa
:0402ac00e402000068
:020000040000fa
:0402b000e402000064
:020000040000fa
:0402b400e402000060
:020000040000fa
:0402b800e40200005c
:020000040000fa
:0402bc00e402000058
:020000040000fa
:0402c000e402000054
:020000040000fa
:0402c400e402000050
:020000040000fa
:0402c800e40200004c
:020000040000fa
:0402cc00e402000048
:020000040000fa
:0402d000e402000044
:020000040000fa
:0402d400e402000040
:020000040000fa
:0402d800e40200003c
:020000040000fa
:0402dc00e402000038
:020000040000fa
:0402e000e402000034
:020000040000fa
:0402e400e402000030
:020000040000fa
:0402e800e40200002c
:020000040000fa
:0402ec00e402000028
:020000040000fa
:0402f000e402000024
:020000040000fa
:0402f400e402000020
:020000040000fa
:0402f800e40200001c
:020000040000fa
:0402fc00e402000018
:020000040000fa
:04030000e402000013
:020000040000fa
:04030400e40200000f
:020000040000fa
:04030800e40200000b
:020000040000fa
:04030c00e402000007
:020000040000fa
:04031000e402000003
:020000040000fa
:04031400e4020000ff
:020000040000fa
:04031800e4020000fb
:020000040000fa
:04031c00e4020000f7
:020000040000fa
:04032000e4020000f3
:020000040000fa
:04032400e4020000ef
:020000040000fa
:04032800e4020000eb
:020000040000fa
:04032c00e4020000e7
:020000040000fa
:04033000e4020000e3
:020000040000fa
:04033400e4020000df
:020000040000fa
:04033800e4020000db
:020000040000fa
:04033c00e4020000d7
:020000040000fa
:04034000e4020000d3
:020000040000fa
:04034400e4020000cf
:020000040000fa
:04034800e4020000cb
:020000040000fa
:04034c00e4020000c7
:020000040000fa
:04035000e4020000c3
:020000040000fa
:04035400e4020000bf
:020000040000fa
:04035800e4020000bb
:020000040000fa
:04035c00e4020000b7
:020000040000fa
:04036000e4020000b3
:020000040000fa
:04036400e4020000af
:020000040000fa
:04036800e4020000ab
:020000040000fa
:100400004f8120000eff20000e0188000000000038
:10041000000020000000e000020032000001200087
:100420002002880014000700690007000000e000b7
:1004300003003a00809520000100200002003700f0
:100440000000200001002000810f70000100320038
:1004500014000700000020000000e000020032004d
:1004600000000200000000002c0902000000000053
:100470000040da000000fe004440a9000000200017
:100480000000e0000300320000002000a00188000e
:100490004440a800000006008a1f78008b1f7800e7
:1004a0000000060091018800800478000000eb0045
:1004b0001a003700e284440032a0b4009905ba0063
:1004c000e284440032a0b4009906ba00e2844400f9
:1004d00032a0b4000006eb00476fde00fd07b2005b
:1004e000636ce10003003a00ebff07000000eb0043
:1004f0000a003700606ce10004003a00005deb0088
:100500008b05e900fdff3e00040037006168e10053
:10051000010032000086eb000b00070019c7ba008b
:100520001905ba000e04e00003003a000a00e000da
:10053000e0ff3a0000000600fe07b2009e018800be
:100540008a047800f5ff3700395dba008b05e900b1
:100550000c003200295dba008b05e900080032006a
:100560000c00e00003003a00e284440032a0b40032
:10057000f5ff370019ddba008b05e900faff3a00f4
:100580008904e800e184440032a0b40000000600c1
:100590000000000000000000801f78000000fa004a
:1005a0008460a90010002000904088004040800036
:1005b0000000a200404088000021ef000080fa0007
:1005c0004f007800004006000040da000000fe0006
:0405d0000000050022
:020000040000fa
:1005d4000000fa0001188000a02a2000808f50003b
:1005e4001f00360011188000a02a2000808f5000c0
:1005f4001b00360021188000a02a2000808f5000a4
:10060400170036004118800010172000808f50001a
:100614000800360031188000b0122000808f50008e
:1006240004003600d118800030102000808f500064
:100634000b003e004000200000408800020037000c
:10064400f8000700b001070011188000a02a20005c
:10065400808f5000faff3e00100020000040880008
:100664000080fa00000006000000fa00a0188000d4
:100674009401070000f0a7000000ea000000ea006f
:100684004f00de000080fa00000006000000fa00bf
:100694000118800040152000808f500008003600ab
:1006a4001118800040152000808f5000040036008f
:1006b4002118800040152000808f500006003e0065
:1006c40041188000700c2000808f500002003e0012
:1006d40010002000010037000000eb000080fa0049
:1006e400000006000000fa00dfff07000000e00041
:1006f40018003200900020000040880082010700aa
:10070400802520005e010700000000001118800011
:1007140050152000808f5000fcff3e001000200088
:100724000040880002003700250107007601070019
:1007340031188000901a2000808f5000faff3e008c
:10074400f0002000004088006f010700003b2000fb
:10075400000001000080fa00000006002600fa00f4
:100764006000200070079800f200470009000900ab
:100774008018eb0010242000000f7800803920003e
:10078400100798000000eb00200798000000eb0021
:10079400300798005e0037001e007800b00c880017
:1007a40080252000360107001e0090001e00500026
:1007b4000000e00001003d00630040004280de00d4
:1007c400000f98000000eb00500798001b00370052
:1007d400b00c8000800078005e00900000004000b3
:1007e400000047007200400001087800e018800013
:1007f400800078005e00900065004000000040002a
:100804000000470072004000010878005e0090007c
:10081400e50f500006003200b10c80000e08900075
:1008240000804000b00c8800c012200014010700b2
:100834005e0090000000e800500798005e00900001
:10084400e40f5000e2ff34000000eb006007980062
:10085400130037006e009000650040000000400067
:1008640000004700900890002e009000808f5000f8
:10087400080034006e009000650040000000400055
:10088400000047009008900021079800ee009000b7
:10089400310798006e0090000000e800600798009f
:1008a4006e009000e40f5000eaff34003e00900018
:1008b4000000e00002003a00100020003007980019
:1008c4003e009000e40f500002003a003000200087
:1008d400300798003e0090000000e900000040004e
:1008e4000000470090089000010f78003e0090003f
:1008f4000000e8000000400000004700900890005d
:10090400110798004e0090000000e800400798008e
:10091400ce0090007e009000808f50009eff350036
:100924003e009000000040000000470010089000c6
:10093400b00c8800cd22a800feff37000000fa00aa
:1009440052ff07000000e00034003200401f200086
:10095400cb000700f000200000408800ea000700f8
:100964009118800030062000808f500010003e0057
:100974007000200000408800e3000700701720008a
:10098400bf000700f000200000408800de000700e0
:1009940080392000b00c8800007d2000b8000700da
:1009a4005000200000408800d70007000f003700e7
:1009b4005000200000408800d3000700701720007a
:1009c400af000700f000200000408800ce000700c0
:1009d400601d2000b00c8800007d2000a8000700e6
:1009e4007000200000408800c7000700d02a2000c3
:1009f400b00c88000000000011188000a02a20001c
:100a0400808f5000fcff3e00100020000040880052
:100a1400bd000700a0282000990007000080fa000c
:100a2400000006000000fa0000408000e50f5000be
:100a34001c003200e50f500003003c00e40f50009e
:100a4400060032005c003700e60f50002700320039
:100a5400e70f50003700320057003700311880008c
:100a6400b0122000808f500044003e00c118800066
:100a740070112000808f500003003e0070002000a1
:100a8400004088004c0037004118800010172000f7
:100a9400808f50003b003e00500020000040880042
:100aa40045003700c118800070112000808f50006d
:100ab40036003e0031188000b0122000808f5000b4
:100ac40003003e0060002000004088003a00370028
:100ad400d118800030102000808f50002d003e007f
:100ae400400020000040880033003700d118800007
:100af40030102000808f500028003e0041188000f4
:100b040010172000808f500003003e00500020008a
:100b14000040880028003700c118800070112000b0
:100b2400808f50001f003e007000200000408800ad
:100b3400210037004118800010172000808f5000da
:100b44001a003e0031188000b0122000808f50003f
:100b540003003e00600020000040880016003700bb
:100b6400d118800030102000808f500011003e000a
:100b740040002000004088000f0037000000000003
:100b84000d003700000000000b00370000000000db
:100b940009003700000000000700370000000000d3
:100ba40005003700000000000300370000000000cb
:100bb40001003700000000000080fa000000060079
:100bc4000000fa00001880003e0007006040880022
:100bd400101880003b000700204088002018800087
:100be400380007007040880000408000e20f500089
:100bf40010003200e30f500014003200e10f5000e7
:100c04001d003a0060408000e20f500003003a00eb
:100c1400300020000040880017003700704080003a
:100c2400e20f50000f003a0020002000004088002e
:100c34001100370020408000e20f50000b003a0002
:100c440010002000004088000b0037002040800086
:100c5400e20f500007003a00100020000040880016
:100c6400050037000000000003003700000000000a
:100c740001003700000000000080fa0000000600b8
:100c84000200fa00000f780005e1a800e0ff2f0041
:100c9400100888000021ef00000000001e0078000a
:100ca4006f00b90000007800800078000008800020
:100cb400808f5000f9ff3e0005e1a9000080fa0092
:100cc400000006000200fa00000f7800902a2000bd
:100cd4009e007800808f5000020036000000eb0078
:100ce40007003700401520009e007800808f5000d8
:100cf4000200360010002000010037002000200010
:100d04000080fa00000006000000fa001140800094
:100d140000408000808f50005d0032000040800061
:100d2400cf80de00f200200003002000820f50007c
:100d3400838f580053003e00006001000f0037000d
:100d440014003700190037001e0037002300370055
:100d5400280037002d0037003200370037003700f5
:100d64003c00370047003700460037004500370095
:100d740044003700430037003c0037008001eb009b
:100d84000001eb008000eb000000eb0043000700d3
:100d94003c003700130020000001eb008000eb0052
:100da4000000eb003d000700360037008001eb0037
:100db400120020008000eb000000eb003700070069
:100dc4003000370013002000120020008000eb00e8
:100dd4000000eb00310007002a0037008001eb001f
:100de4000001eb00110020000000eb002b000700c5
:100df40024003700130020000001eb001100200044
:100e04000000eb00250007001e0037008001eb0006
:100e140012002000110020000000eb001f0007005a
:100e240018003700130020001200200011002000d9
:100e34000000eb0019000700120037008001eb00ee
:100e44000001eb008000eb001000200013000700fd
:100e54000c003700130020000001eb008000eb00c1
:100e6400100020000d0007000600370013002000ca
:100e740012002000110020001000200007000700cd
:100e8400000000000040800010408800010037008e
:100e9400000000000080fa00000006000800fa00cc
:100ea400000f780011079800220798003307980074
:100eb4003e00900000407800614060000080fb002c
:100ec400610060004400dd00611680000140a10063
:100ed40001007000601688002e0090000040780029
:100ee400614060000080fb00610060004400dd00a0
:100ef400211680000140a100010070002016880026
:100f04001e00900000407800614060000080fb00fb
:100f1400610060004800dd00611680000180a100ce
:100f240001007000601688001e0078000040780000
:100f3400614060000080fb00610060004700dd004c
:100f4400611680000170a100010070006016880025
:100f54000080fa00000006000000fa00311880004a
:100f6400b0122000808f500002003e00cc82a80006
:100f740001003700cc82a900c11880007011200044
:100f8400808f500002003e00c482a8000100370098
:100f9400c482a900d118800070112000808f5000f5
:100fa40002003e00cd02a80001003700cd02a900d6
:100fb4004118800070112000808f500002003e0014
:100fc400cce2a800e5ff3700cce2a900e3ff37003c
:100fd4000000fa000100370000000000f8fe0700de
:100fe40041188000b0122000808f50000c003e0099
:100ff400cce2a800c1188000b0122000808f5000fd
:1010040001003e00c482a800004080000000e0000f
:10101400f1ff3a00cc82a800cd02a800efff370010
:10102400cc82a900c482a900cd02a900cce2a90007
:10103400eaff37000000fa000018800021ff0700d3
:1010440060408800101880001eff070020408800c0
:10105400201880001bff0700704088006240800059
:1010640021408000704080008001eb008bff07006e
:10107400f1ff37000000fa00c022ef00c822ef00a1
:10108400e024ef00e224ef00c422ef00cc22ef00c2
:10109400c002a800c022a800c802a800c9e2a80093
:1010a400c9c2a800c062a800c822a800c842a800fb
:1010b400c042a800c982a800e004a800e024a80057
:1010c400e204a800e3e4a800e3c4a800e064a800e4
:1010d400e224a800e244a800e044a800e384a800b5
:1010e4000080fa00000006000000fa0041e3a900b5
:1010f4004143a900011a8000f0cf2f000080600056
:10110400001a8800011a8000f0f02f00808060002f
:101114000007200001007000001a88004043a80066
:10112400111a8000f0ff230000806000101a88006c
:1011340043a3a9004363a8004343a800111a8000f5
:1011440030f82f0080806000400220000100700011
:10115400101a88004203a90045e3a900211a80005f
:10116400f00f2e00008060000080a000201a88008c
:1011740000c2b30044e3b700f0612700801a88007e
:1011840041e3a8000080fa00000006000000fa0015
:101194000421a90021088000000320000100700040
:1011a4002008880020a127001008880005e1a90074
:1011b40021058000f0ff28000080600000e0a0000e
:1011c400200588008460a9009460a8000021ef0035
:1011d40011e1a80081088000f0fc2f00008060006d
:1011e4000040a000800888001021a900f0702200af
:1011f400600888000080fa00000006000000fa0081
:101204009021ef009221ef00810c8000f03f2e002e
:1012140000806000800c8800810c800080ff2f001b
:10122400008060006000b300800c8800900c800097
:10123400f001b300900c880092e1a900f070220044
:10124400a00c8800d02a2000b00c88000080fa008e
:10125400000006000000fa00213a8000f08f2f0001
:1012640000806000203a880082ff07009eff07008c
:10127400c6ff0700e1ff0700803e200080fe070054
:1012840010002000004088009ffe0700803e2000e0
:101294007bfe07004afe07009bfe0700a7fd070030
:0c12a40010fd0700cafc0700faff37002d
:020000040000fa
:1012b000000800000c000000020000000100ff0018
:1012c000ff020000ffff0100000100000c08000009
:0c12d0000800000000000000000000000a
:020000040000fa
:0200000401f009
:04000c00dfff000012
:020000040000fa
:0200000401f009
:04001000fbff0000f2
:00000001FF
