:020000040000fa
:080000000002040000000000f2
:020000040000fa
:0400080000030000f1
:020000040000fa
:04000c0000030000ed
:020000040000fa
:0400100000030000e9
:020000040000fa
:0400140000030000e5
:020000040000fa
:0400180000030000e1
:020000040000fa
:04001c0000030000dd
:020000040000fa
:0400200000030000d9
:020000040000fa
:0400240000030000d5
:020000040000fa
:0400280000030000d1
:020000040000fa
:04002c0000030000cd
:020000040000fa
:0400300000030000c9
:020000040000fa
:04003400d8020000ee
:020000040000fa
:0400380000030000c1
:020000040000fa
:04003c0000030000bd
:020000040000fa
:0400400000030000b9
:020000040000fa
:0400440000030000b5
:020000040000fa
:04004800f0020000c2
:020000040000fa
:04004c0000030000ad
:020000040000fa
:0400500000030000a9
:020000040000fa
:0400540000030000a5
:020000040000fa
:0400580000030000a1
:020000040000fa
:04005c00000300009d
:020000040000fa
:040060000003000099
:020000040000fa
:040064000003000095
:020000040000fa
:040068000003000091
:020000040000fa
:04006c00000300008d
:020000040000fa
:040070000003000089
:020000040000fa
:040074000003000085
:020000040000fa
:040078000003000081
:020000040000fa
:04007c00000300007d
:020000040000fa
:040080000003000079
:020000040000fa
:040084000003000075
:020000040000fa
:040088000003000071
:020000040000fa
:04008c00000300006d
:020000040000fa
:040090000003000069
:020000040000fa
:040094000003000065
:020000040000fa
:040098000003000061
:020000040000fa
:04009c00000300005d
:020000040000fa
:0400a0000003000059
:020000040000fa
:0400a4000003000055
:020000040000fa
:0400a8000003000051
:020000040000fa
:0400ac00000300004d
:020000040000fa
:0400b0000003000049
:020000040000fa
:0400b4000003000045
:020000040000fa
:0400b8000003000041
:020000040000fa
:0400bc00000300003d
:020000040000fa
:0400c0000003000039
:020000040000fa
:0400c4000003000035
:020000040000fa
:0400c8000003000031
:020000040000fa
:0400cc00000300002d
:020000040000fa
:0400d0000003000029
:020000040000fa
:0400d4000003000025
:020000040000fa
:0400d8000003000021
:020000040000fa
:0400dc00000300001d
:020000040000fa
:0400e0000003000019
:020000040000fa
:0400e4000003000015
:020000040000fa
:0400e8000003000011
:020000040000fa
:0400ec00000300000d
:020000040000fa
:0400f0000003000009
:020000040000fa
:0400f4000003000005
:020000040000fa
:0400f8000003000001
:020000040000fa
:0400fc0000030000fd
:020000040000fa
:0401000000030000f8
:020000040000fa
:0401040000030000f4
:020000040000fa
:0401080000030000f0
:020000040000fa
:04010c0000030000ec
:020000040000fa
:0401100000030000e8
:020000040000fa
:0401140000030000e4
:020000040000fa
:0401180000030000e0
:020000040000fa
:04011c0000030000dc
:020000040000fa
:0401200000030000d8
:020000040000fa
:0401240000030000d4
:020000040000fa
:0401280000030000d0
:020000040000fa
:04012c0000030000cc
:020000040000fa
:0401300000030000c8
:020000040000fa
:0401340000030000c4
:020000040000fa
:0401380000030000c0
:020000040000fa
:04013c0000030000bc
:020000040000fa
:0401400000030000b8
:020000040000fa
:0401440000030000b4
:020000040000fa
:0401480000030000b0
:020000040000fa
:04014c0000030000ac
:020000040000fa
:0401500000030000a8
:020000040000fa
:0401540000030000a4
:020000040000fa
:0401580000030000a0
:020000040000fa
:04015c00000300009c
:020000040000fa
:040160000003000098
:020000040000fa
:040164000003000094
:020000040000fa
:040168000003000090
:020000040000fa
:0402080000030000ef
:020000040000fa
:04020c0000030000eb
:020000040000fa
:0402100000030000e7
:020000040000fa
:0402140000030000e3
:020000040000fa
:0402180000030000df
:020000040000fa
:04021c0000030000db
:020000040000fa
:0402200000030000d7
:020000040000fa
:0402240000030000d3
:020000040000fa
:0402280000030000cf
:020000040000fa
:04022c0000030000cb
:020000040000fa
:0402300000030000c7
:020000040000fa
:04023400d8020000ec
:020000040000fa
:0402380000030000bf
:020000040000fa
:04023c0000030000bb
:020000040000fa
:0402400000030000b7
:020000040000fa
:0402440000030000b3
:020000040000fa
:04024800f0020000c0
:020000040000fa
:04024c0000030000ab
:020000040000fa
:0402500000030000a7
:020000040000fa
:0402540000030000a3
:020000040000fa
:04025800000300009f
:020000040000fa
:04025c00000300009b
:020000040000fa
:040260000003000097
:020000040000fa
:040264000003000093
:020000040000fa
:04026800000300008f
:020000040000fa
:04026c00000300008b
:020000040000fa
:040270000003000087
:020000040000fa
:040274000003000083
:020000040000fa
:04027800000300007f
:020000040000fa
:04027c00000300007b
:020000040000fa
:040280000003000077
:020000040000fa
:040284000003000073
:020000040000fa
:04028800000300006f
:020000040000fa
:04028c00000300006b
:020000040000fa
:040290000003000067
:020000040000fa
:040294000003000063
:020000040000fa
:04029800000300005f
:020000040000fa
:04029c00000300005b
:020000040000fa
:0402a0000003000057
:020000040000fa
:0402a4000003000053
:020000040000fa
:0402a800000300004f
:020000040000fa
:0402ac00000300004b
:020000040000fa
:0402b0000003000047
:020000040000fa
:0402b4000003000043
:020000040000fa
:0402b800000300003f
:020000040000fa
:0402bc00000300003b
:020000040000fa
:0402c0000003000037
:020000040000fa
:0402c4000003000033
:020000040000fa
:0402c800000300002f
:020000040000fa
:0402cc00000300002b
:020000040000fa
:0402d0000003000027
:020000040000fa
:0402d4000003000023
:020000040000fa
:0402d800000300001f
:020000040000fa
:0402dc00000300001b
:020000040000fa
:0402e0000003000017
:020000040000fa
:0402e4000003000013
:020000040000fa
:0402e800000300000f
:020000040000fa
:0402ec00000300000b
:020000040000fa
:0402f0000003000007
:020000040000fa
:0402f4000003000003
:020000040000fa
:0402f80000030000ff
:020000040000fa
:0402fc0000030000fb
:020000040000fa
:0403000000030000f6
:020000040000fa
:0403040000030000f2
:020000040000fa
:0403080000030000ee
:020000040000fa
:04030c0000030000ea
:020000040000fa
:0403100000030000e6
:020000040000fa
:0403140000030000e2
:020000040000fa
:0403180000030000de
:020000040000fa
:04031c0000030000da
:020000040000fa
:0403200000030000d6
:020000040000fa
:0403240000030000d2
:020000040000fa
:0403280000030000ce
:020000040000fa
:04032c0000030000ca
:020000040000fa
:0403300000030000c6
:020000040000fa
:0403340000030000c2
:020000040000fa
:0403380000030000be
:020000040000fa
:04033c0000030000ba
:020000040000fa
:0403400000030000b6
:020000040000fa
:0403440000030000b2
:020000040000fa
:0403480000030000ae
:020000040000fa
:04034c0000030000aa
:020000040000fa
:0403500000030000a6
:020000040000fa
:0403540000030000a2
:020000040000fa
:04035800000300009e
:020000040000fa
:04035c00000300009a
:020000040000fa
:040360000003000096
:020000040000fa
:040364000003000092
:020000040000fa
:04036800000300008e
:020000040000fa
:100400008f8220000eff20000e01880000000000f7
:10041000000020000000e000020032000001200087
:100420002002880014000700770007000000e000a9
:1004300003003a0040422100010020000200370082
:100440000000200001002000810f70000100320038
:1004500014000700000020000000e000020032004d
:1004600000000200000000004c1402000000000028
:100470000040da000000fe004440a9000000200017
:100480000000e0000300320000002000a00188000e
:100490004440a800000006008a1f78008b1f7800e7
:1004a0000000060091018800800478000000eb0045
:1004b0001a003700e284440032a0b4009905ba0063
:1004c000e284440032a0b4009906ba00e2844400f9
:1004d00032a0b4000006eb00476fde00fd07b2005b
:1004e000636ce10003003a00ebff07000000eb0043
:1004f0000a003700606ce10004003a00005deb0088
:100500008b05e900fdff3e00040037006168e10053
:10051000010032000086eb000b00070019c7ba008b
:100520001905ba000e04e00003003a000a00e000da
:10053000e0ff3a0000000600fe07b2009e018800be
:100540008a047800f5ff3700395dba008b05e900b1
:100550000c003200295dba008b05e900080032006a
:100560000c00e00003003a00e284440032a0b40032
:10057000f5ff370019ddba008b05e900faff3a00f4
:100580008904e800e184440032a0b40000000600c1
:10059000000000000000000000000000000000005b
:1005a000000000000000000000000000000000004b
:1005b000801f78000000fa008460a900100020006d
:1005c00070408800d04080000000a200d040880029
:1005d0000021ef000080fa004f0078000040060084
:1005e0000000fa008500a90013e1a9009500a90008
:1005f0000a21ef001c28ef000080fa0000400600ee
:100600000040da000000fe00000005000001be000e
:10061000220007000470a70003f0a1006509b100e3
:10062000160032000d0035006828e1000600350094
:10063000f0ff2f00f1ff27000300e00013003b0054
:1006400001002800000005000000400081804800f3
:100650008502e900fcff3a0008003700f88f4200ed
:1006600002003c008000eb00000005008100d1008a
:100670000080d3008502e800fcff3a000300e000a0
:1006800002003b0060001000e0801800000006003f
:100690004f89de008201780005023700c70ade00bc
:1006a000f107b200f50fb20008003200e1cf4200be
:1006b000020032000170a00024000500810f7000cc
:1006c000010032000408050044000500810f70009d
:1006d00002003a00140005008502e9000000400015
:1006e00081c04800fcff3b000170a0002400050011
:1006f00007f82700078361000638e10004003a008c
:10070000f7072000878361008703710001003a002a
:1007100003f0a200889fbe008a9fbe008c9fbe008f
:10072000470ade000480a100c71ade000580a10090
:10073000070028000785600087856100f70f20000b
:100740000720e1009e0032000728e1009c003200f3
:10075000010678000400e000b4003200f707200032
:10076000878060000170a0000500e000c00032003a
:10077000f7072000878161000370a0000506520082
:100780000f003a000b50e1000b0032000308e100bb
:1007900002003a000200e1007e0032000204500034
:1007a00083845800040031000001fd008101fd0038
:1007b0008402fd008a05fd006044b8002100370076
:1007c0000520e10005003d000001fd008101fd0064
:1007d0008402fd008a05fd00050652007a60e100f2
:1007e000050035000170a1004722dd008480700003
:1007f0008a807000630037006044b800ef02660032
:1008000007ff2f00070666000500e0000600340021
:10081000f08312008714dd000511de00071bdd00e8
:10082000060171008519de007060e10005003500e9
:100830000904780082047800030178008001eb004d
:10084000700656000b50e10003003a000200400021
:10085000838048000400370060041400e0841c001a
:1008600002005800838058000188a300060032006f
:100870008100d1000080d3008984d3000884d30094
:100880000402e800270037000178a30025003a00a1
:100890000100e000030032008186cf006986560027
:1008a0000a0037008c0020000000e00004003a003d
:1008b00009007800880478000004eb007002520000
:1008c0008086cf000d0646000c06e9007060e1004e
:1008d0000600350080007800090078008804780060
:1008e0000004eb0070065600700252000c00e0009d
:1008f0000c0034008c08dd00f00316000703de0056
:10090000868070000c00dd00074bde0006007000e2
:100910008c4cdd000743de00868474000c44dd004f
:100920000c0252006120e1002000350061016000ee
:100930000700280087816400f7ff27008783640091
:10094000070374000300e000060032008203730016
:10095000040032000000e800e08048000188a300a5
:100960000e003a00f70f20000720e1004a003d008a
:100970000170a1004722dd00810072008a807000b2
:100980000000be004f06be004f05be004f04be0073
:10099000000006006000b800faff37008100d100b7
:1009a0000080d3000402e800eeff37000401780065
:1009b00089017400c20007008a807000f1ff3700cf
:1009c00018010700070278000001fd008101fd0009
:1009d0001401070087027800850372000778a300de
:1009e000040032000001fd008101fd002701070025
:1009f000e4ff3700850362000768a30008003200a7
:100a00000b50e10003003200f0ff2f00f1ff270040
:100a1000dcff37000001fd008101fd00d9ff370038
:100a20000468a300d7ff3200faff3700f8ff270061
:100a3000888360000b003a000000e00009003a00e3
:100a40008303640082837300020032000200be0050
:100a5000ccff37000b50e100ceff3a000200be0091
:100a6000c8ff370014002000810064003eff3700fb
:100a7000f8ff27008883610004003a000200e000cc
:100a800002003a008c007800beff370015002000fd
:100a90008301640039ff370001f8270000002000bf
:100aa00081007500b7ff3700038368000700280046
:100ab00007036300470ade000480a100c71ade00b6
:100ac0000580a100f70f20000720e100420032005e
:100ad0000728e10040003200889fbe008a9fbe00c8
:100ae0008c1f7800f107b200f307b2000400e000a9
:100af000640032000170a0000500e00068003200d0
:100b00000370a00085054200eb07b1000204b800a5
:100b10000302b8008484440060854a00020ab800d9
:100b2000848444000a854a00030ab800040545008d
:100b3000040033000804d0008984d2000a85d20062
:100b40008b05e9006158e1003d00350002102000ee
:100b5000090161000308200089816100f707200076
:100b60008783640008867300c84cde00c853dd002c
:100b7000878474004855de000300e0000600320060
:100b800082037600040032008904e80060054d000d
:100b90000a88a3000c003a00f70f20000758e10074
:100ba00044003d000a70a100c75ddd000a857500a4
:100bb0008a007300090078004f0678004f05be00d8
:100bc0004f04be00000006000a05d1008984d3004e
:100bd0008b05e800f0ff3700881f780006047800d6
:100be00090000700070278000001fd008101fd0070
:100bf0008c00070087027800850372000778a30045
:100c0000050032000001fd008101fd009f0007008a
:100c10004f04780000000600850372000748a30017
:100c200003003200f0ff2f00f1ff2700f8ff37002c
:100c30000000200001f8270088807000f4ff3700d2
:100c4000880178004848dd00808171004848de0056
:100c5000c850dd0001007000c850de0006047800b6
:100c60000b0178001600070088807000d2ff370063
:100c70000500e00005003200170020003a000700e0
:100c80009dff370081037000f9ff3a00860078006d
:100c90004f0678004f05be004f04be00000005005f
:100ca00083037100f9ff3200270020002e000700a7
:100cb00094ff370001f8270086807000f4ff3700aa
:100cc0000100e00026003200610111007810e1000f
:100cd00023003c006022b8007010e10004003500e1
:100ce00080027800010078008000eb007001510064
:100cf0000200e0000900340070031100062add0044
:100d0000822ade008603dd00878272000200de0098
:100d1000860bdd00070070008208de008481710010
:100d2000f4ff27000482620084817100040028001f
:100d3000848262006102600005f0a60000000600e7
:100d400004827100070032000000e800e0804800e3
:100d5000000006000002be006000b800efff370090
:100d60006000b80000000600889fbe000004eb0091
:100d70006138e10016003a000100e00008003a0086
:100d8000c800de004800dd00880020000100e0000f
:100d900003003a00c800de004800dd00680444009b
:100da0008184cf00e9845400060034008908dd0006
:100db000f08314008703de00878070000900dd00e7
:100dc00009044400610214004f04be000000060044
:100dd0000300e00008003a00c811de004811dd0001
:100de000880020000300e00003003a00c811de0084
:100df0004811dd00680444008384cf00e984540076
:100e0000060034008919dd00f08314008713de002a
:100e1000878171000911dd0009044400e10214001a
:100e2000e9ff37002700200001f0a700170020008d
:100e3000470bde00f60fb200040032000643e80064
:100e40000a0032004702b3000000060001037800e8
:100e5000f607b2000603700002003a000703b30071
:100e6000000006008702b3000000060001037800be
:100e7000f607b20006037000020032000770a000ff
:100e8000000006000760a000000006000478a30030
:100e9000040032000578a300030032000168a300bb
:100ea00001003a000200be000160a0000000060040
:100eb000881f7800030478000300e00007003d006d
:100ec00060001000e080180060011900e081190046
:100ed00002003b0001f02d00030037000400070072
:100ee00008f0a70001f0a0004f0478000000060001
:100ef000889fbe008a9fbe000082700004027100bd
:100f000004827100260032000004be000200be0010
:100f10006011b8006b092000950220000182cf000b
:100f20000a0039000541b1000082cf0007003900f6
:100f30000541b1000982cf00040039000541b1002c
:100f40000882cf00010039000541b100054252007e
:100f5000120032000a003b008281710061016400ce
:100f60008100d1000080d3008984d3000884d3009d
:100f70008b05e8000442e800f7ff3a00070037005d
:100f80000804440089844c00000048008180480027
:100f90008b05e9000442e900f9ff3a00030007006d
:100fa0004f05be004f04be00000006008100200077
:100fb000618055000b003d000b00200061fe2f00fa
:100fc0000100e1001d0034008281710061016400b4
:100fd0008904d1000884d3000000e800faff3a0039
:100fe00071002000610064000300700002006000d6
:100ff0000900320061044400e0844c000988a50027
:10100000050032008b05e8006808e10002003a00a4
:101010008904d1000884d300f20f20000258e100b7
:1010200005003d00c75ddd00f907b200898075004d
:1010300008007800000006000bf827008b007800fd
:0410400000000500a7
:020000040000fa
:101044000000fa0036030700808820000000010039
:101054009d03070080408000e10f50000a00320029
:10106400e10f500005003900e20f50000900320082
:10107400e30f5000090032000a0037008085200089
:10108400000001000700370060c1200000000100db
:10109400040037000902070002003700ae00070011
:1010a400000000000080fa00000006000000fa00c2
:1010b4001000200090408800830307000000000017
:1010c4006d0007000000e000fdff320090002000ea
:1010d400904088007c030700000000001118800085
:1010e40050152000808f5000fcff3e00f0002000cf
:1010f400904088007403070010002000804088009e
:101104001e28ef000080fa00000006000000fa002c
:10111400300007000000e000290032003300200006
:1011240022002000110020000000eb00d104070081
:101134000000e000240032004000200090408800bd
:1011440061030700020037006e0207005e03070018
:10115400320020002100200010002000e5040700d8
:101164000000e000f8ff320010002000f04088008a
:10117400f0002000904088005303070031188000dd
:10118400d0152000808f50000a003e00800020000f
:10119400904088004c030700401f200030030700e4
:1011a400000000001118800050152000808f5000ae
:1011b400fcff3e00f0002000904088000300370050
:1011c4000000000001003700000000000080fa0069
:1011d400000006000000fa00f04080000000e0007b
:1011e400020032000000eb001700370001188000f5
:1011f400a02a2000808f50001200360011188000b1
:10120400a02a2000808f50000e0036002118800094
:10121400a02a2000808f50000a0036004118800068
:1012240050222000808f50000400360031188000c6
:10123400d0152000808f500002003e0010002000d6
:10124400010037000000eb000080fa0000000600f7
:101254000000fa0011188000902a2000808f5000ae
:1012640002003e0010002000010037000000eb00e7
:101274000080fa00000006000000fa00a2188000b6
:101284001000200031062000810f510001003600bb
:101294000000eb000080fa00000006000200fa00e3
:1012a400000f780010002000e04088000a21ef00c1
:1012b4009500a8001e0078006f00b90000007800b7
:1012c4007008880013e1a8000080fa0000000600fe
:1012d4000000fa000118800040152000808f5000a3
:1012e400080036001118800040152000808f50003f
:1012f400040036002118800040152000808f500023
:1013040006003e0041188000700c2000808f5000c1
:1013140002003e0010002000010037000000eb0036
:101324000080fa00000006000000fa0041062000d8
:10133400b000200033040700d1072000810f5000c3
:101344000200340010002000010037000000eb0010
:101354000080fa00000006000000fa00c6ff070043
:101364000000e0001d003200b00020009040880022
:10137400d502070020032000b902070090002000d6
:1013840090408800d0020700401f2000b4020700ec
:10139400000000001118800050152000808f5000bc
:1013a400fcff3e001000200090408800020037003f
:1013b4005b020700c4020700311880007017200088
:1013c400808f5000faff3e00f0002000904088001b
:1013d400bd020700409f2000000001000080fa00c9
:1013e400000006008600fa00ee0047003b000900fa
:1013f4008018eb00112420006800470001087800e1
:10140400813920006a004700010878006a0047001b
:101414009000780068004700100078008080500039
:10142400e001200000017800110009008200d800ca
:101434008000fd006c004700010878000000eb000c
:10144400000f78008000eb000e80e80001087800af
:101454006800470010007800b00c88006009200084
:101464007f0207008000eb00640047000108780059
:1014740021003700b00c8000800078006400470031
:101484001000780000004000000047006e0040009b
:1014940001087800e01880008000780064004700ac
:1014a400100078007e00400000004000000047006b
:1014b4006e004000010878006400470010007800c6
:1014c400fc0f500011003c00b10c80006c00470080
:1014d4001000780000804000b00c88002003200039
:1014e4005f02070064004700100078008000e800f5
:1014f4006400470001087800640047001000780089
:10150400fd0f5000dbff3400010037000000000035
:101514008000eb0066004700010878001c003700db
:1015240066004700100078007e0040000000400084
:10153400000047006e004000100078009e0f50002d
:101544000e00340066004700100078007e00400062
:1015540000004000000047006e004000100f7800bb
:10156400660047001000780000004000800047003b
:101574000e80e800ee804000110878006600470005
:10158400100078008000e800660047000108780039
:101594006600470010007800fd0f5000e0ff3400a3
:1015a4000e80e80010007800b00c8800cd22a8005e
:1015b400feff37002600fa00510020006e004700ad
:1015c40001087800f2004700090009008018eb00c8
:1015d40010242000000f7800813920000e80e800dc
:1015e400010878008000eb006400470001087800df
:1015f4008000eb0066004700010878007b0037009c
:101604001e007800b00c8800c012200014020700ed
:101614000e80e800100078001e0050000000e0007a
:1016240001003d0063004000c280de0070004700fe
:10163400010878008000eb006a0047000108780088
:1016440021003700b00c8000800078006a00470059
:1016540010007800000040000000470072004000c5
:1016640001087800e0188000800078006a004700d4
:1016740010007800650040000000400000004700b2
:1016840072004000010878006a00470010007800ea
:10169400e50f500007003200b10c800070004700d5
:1016a4001000780000804000b00c8800800c2000fe
:1016b400eb0107006a004700100078008000e80092
:1016c4006a004700010878006a00470010007800ab
:1016d400e40f5000dbff34008000eb006c00470097
:1016e400010878001b0037006c00470010007800e8
:1016f4006500400000004000000047007200400008
:10170400900078006400470010007800808f50003b
:101714000b0034006c0047001000780065004000a6
:10172400000040008000470064004700f280400051
:101734001108780066004700ec00470011087800a3
:101744006c004700100078008000e8006c0047003f
:10175400010878006c00470010007800e40f500086
:10176400e1ff340066004700100078000000e0004c
:1017740003003a00110020006600470001087800c9
:101784006600470010007800e40f500003003a00a0
:101794003100200066004700010878006600470019
:1017a400100078000000e90000004000000047003d
:1017b40072004000100f78006600470010007800a7
:1017c4000000e80000004000800047000e80e800b0
:1017d400f28040001108780068004700100078008b
:1017e4008000e800680047000108780068004700ae
:1017f400900078006e00470010007800808f500041
:101804007fff3500660047001000780000004000ac
:10181400000047007200400010007800b00c8800ff
:10182400cd22a800feff37000000fa00befe07002c
:101834000000e0001f0032005000200090408800ab
:10184400a1010700004b200085010700f0002000e3
:10185400904088009c010700e02e200080010700d2
:1018640070002000904088009701070000000000ed
:101874001118800050152000808f5000fcff3e009e
:10188400f0002000904088008f01070080bb2000fa
:1018940082fe070002003700210107008a010700c9
:1018a400e04080000000e000fbff3a002000200040
:1018b400804088000080fa00000006000000fa0062
:1018c40083fe07000000e0003c00320040062000d8
:1018d40063010700f0002000904088007a010700af
:1018e4009118800030062000808f500010003e00c8
:1018f4007000200090408800730107000019200048
:1019040057010700f0002000904088006e01070096
:1019140080392000b00c8800007d200050010700b1
:101924005000200090408800670107000f00370036
:1019340050002000904088006301070080252000ab
:1019440047010700f0002000904088005e01070076
:10195400601d2000b00c8800007d200040010700bd
:10196400700020009040880057010700d02a200012
:10197400b00c88000000000011188000a02a20008c
:10198400808f5000fcff3e00f00020009040880053
:101994004d01070080bb200040fe07000200370015
:1019a400df00070048010700e04080000000e0007d
:1019b400fbff3a0030002000804088000080fa00dd
:1019c400000006001200fa00e4034700800b7800d0
:1019d40066004700010878006800470002087800a4
:1019e4006a004700030878006c0047000408780088
:1019f4006e0047000508780070004700060878006c
:101a040068004700100078001c020700000f7800ef
:101a14006e0047001000780018020700800078006c
:101a24000e80e800010878006a0047001000780082
:101a34009e007800808f5000060034000e80e8007d
:101a4400900078007000470010007800808f5000ec
:101a540029003c006a004700100078009e007800ce
:101a6400808f50000d003d006c004700900078000e
:101a7400914088001401070000000000680047003e
:101a840010007800fd010700ea004700910078008b
:101a9400810f5000f9ff3500120037000e80e80076
:101aa400900078007000470010007800808f50008c
:101ab4000c003d00660047009000780091408800cb
:101ac40001010700000000006e00470010007800cc
:101ad400ea010700f000470091007800810f5000f0
:101ae400f9ff3500640047009000780091408800b9
:101af400f500070001003700000000000080fa0034
:101b0400000006000000fa0090408000e50f50003d
:101b140024003200e50f500003003c00e40f5000a5
:101b2400060032007c003700e60f50003700320018
:101b3400e70f50004f003200770037000605200001
:101b44004500200074002000c3082000c2002000cb
:101b540051002000400020009aff07003118800047
:101b6400d0152000808f50005c003e00c11880001a
:101b7400b0172000808f500003003e00700020004a
:101b8400904088006400370041188000301a20001b
:101b9400808f500053003e00500020009040880089
:101ba4005d00370056052000d500200064002000a9
:101bb40003052000320020004100200050002000d6
:101bc40080ff0700c1188000b0172000808f5000ec
:101bd40046003e0031188000d0152000808f500050
:101be40003003e0060002000904088004a00370057
:101bf400d118800050132000808f50003d003e001b
:101c04004000200090408800430037000605200073
:101c14004500200074002000c3082000c2002000fa
:101c2400510020006000200066ff0700d1188000ea
:101c340050132000808f500030003e004118800077
:101c4400301a2000808f500003003e005000200016
:101c54009040880030003700c1188000b017200081
:101c6400808f500027003e007000200090408800c4
:101c74002900370056052000d5002000640020000c
:101c840003052000320020004100200070002000e5
:101c94004cff070041188000301a2000808f50004c
:101ca4001a003e0031188000d0152000808f5000ab
:101cb40003003e00600020009040880016003700ba
:101cc400d118800050132000808f500011003e0076
:101cd40040002000904088000f0037000000000002
:101ce4000d003700000000000b003700000000006a
:101cf4000900370000000000070037000000000062
:101d04000500370000000000030037000000000059
:101d140001003700000000000080fa000000060007
:101d24000000fa00001880005d00070000408800f1
:101d3400101880005a000700b04088002018800066
:101d4400570007001040880090408000e30f5000c7
:101d540031003200e30f500005003c00e10f500059
:101d64000f003200e20f5000250032003a00370025
:101d7400ea0f500005003200ef0f500036003a0021
:101d8400a00020009040880033003700200320008a
:101d94003300070010002000904088002e00370018
:101da400004080000000e00009003200b0408000e4
:101db4000000e00003003200100020009040880082
:101dc40025003700300020009040880022003700b2
:101dd400104080000000e0001a003200b040800093
:101de4000000e00003003200100020009040880052
:101df40019003700200020009040880016003700aa
:101e0400b04080000000e00010003200100020000c
:101e14009040880010003700b04080000000e000cf
:101e24000200320010002000904088001040800022
:101e34000000e000070032002000200090408800ed
:101e44000500370000000000030037000000000018
:101e540001003700000000000080fa0000000600c6
:101e64000200fa00000f780005e1a800e0ff2f004f
:101e7400100888000021ef00000000001e00780018
:101e84006f00b9000000780001088000810f500045
:101e9400faff3e0005e1a9000080fa0000000600f8
:101ea4000200fa00000f7800100020005109200001
:101eb4001e017800810f5100010036000000eb0084
:101ec4000080fa00000006000000fa00a140800033
:101ed40090408000808f5000690032009040800064
:101ee400cf80de00f200200003002000820f5000ab
:101ef400838f58005f003e00006001000f00370030
:101f040014003700190037001e0037002300370083
:101f1400280037002d003700320037003700370023
:101f24003c003700410037004600370051003700bd
:101f3400500037004f003700480037008001eb00a5
:101f44000001eb008000eb000000eb004f000700f5
:101f540048003700130020000001eb008000eb0074
:101f64000000eb0049000700420037008001eb004d
:101f7400120020008000eb000000eb00430007008b
:101f84003c00370013002000120020008000eb000a
:101f94000000eb003d000700360037008001eb0035
:101fa4000001eb00110020000000eb0037000700e7
:101fb40030003700130020000001eb001100200066
:101fc4000000eb00310007002a0037008001eb001d
:101fd40012002000110020000000eb002b0007007d
:101fe40024003700130020001200200011002000fc
:101ff4000000eb00250007001e0037008001eb0005
:102004000001eb008000eb00100020001f0007001f
:1020140018003700130020000001eb008000eb00e3
:102024001000200019000700120037008001eb00a7
:10203400120020008000eb001000200013000700b5
:102044000c00370013002000120020008000eb0079
:10205400100020000d0007000600370013002000c8
:1020640012002000110020001000200007000700cb
:102074000000000090408000a0408800010037006c
:10208400000000000080fa00000006000800fa00ca
:10209400000f78000e80e800010878006400470013
:1020a40002087800660047000308780066004700cd
:1020b4001000780000407800614060000080fb0060
:1020c400610060004400dd00611680000140a10051
:1020d400010070006016880064004700100078005a
:1020e40000407800614060000080fb0061006000f7
:1020f4004400dd00211680000140a10001007000b1
:10210400201688000e80e800100078000040780057
:10211400614060000080fb00610060004800dd0059
:10212400611680000180a100010070006016880023
:102134001e00780000407800614060000080fb00d1
:10214400610060004700dd00611680000170a1009d
:1021540001007000601688000080fa00000006008c
:102164000000fa0031188000b0122000808f500067
:1021740002003e00cc82a80001003700cc82a900f6
:10218400c1188000b0122000808f500002003e0071
:10219400c482a80001003700c482a900d1188000bd
:1021a400b0122000808f500002003e00cd02a80033
:1021b40001003700cd02a90041188000b0122000b0
:1021c400808f500002003e00cce2a800e5ff3700fb
:1021d400cce2a900e3ff37000000fa000100370059
:1021e40000000000cefe070041188000b01220005d
:1021f400808f50000c003e00cce2a800c118800083
:10220400b0122000808f500001003e00c482a8005c
:10221400904080000000e000f1ff3a00cc82a8006a
:10222400cd02a800efff3700cc82a900c482a90028
:10223400cd02a900cce2a900eaff37000000fa00b1
:102244000018800016ff0700004088001018800066
:1022540013ff0700b04088002018800010ff07001b
:102264001040880002408000b1408000104080008f
:102274008001eb0085ff0700f1ff37000200fa0040
:10228400000f78001e007800cf80de00f2002000ee
:1022940003002000820f5000838f580031003e005d
:1022a400006001000f0037001000370011003700f4
:1022b40012003700130037001400370015003700f0
:1022c40016003700170037001800370019003700d0
:1022d4001a0037001b0037001c0037001d003700b0
:1022e4001e003700001880001f00370010188000ff
:1022f4001d003700201880001b00370030188000b4
:10230400190037004018800017003700501880006b
:102314001500370060188000130037007018800023
:1023240011003700801880000f00370090188000db
:102334000d003700a01880000b003700b018800093
:1023440009003700c018800007003700d01880004b
:1023540005003700e018800003003700f018800003
:10236400010037000080eb000080fa000000060046
:102374000200fa00889fbe00000f78001e0078005b
:10238400cf80de00c1f807000002be0000418000db
:10239400114180000001be000400be00c1f9070025
:1023a4000004be0000418000114180000001be0015
:1023b4000000200001f82300ccf807000002be0052
:1023c40020418000314180000001be000400be00b5
:1023d400b4f907000001be000800be00ccf80700f5
:1023e4002041880031418800204180003141800033
:1023f40085f80700000078004f04be000080fa0052
:10240400000006000800fa00640147000009780093
:1024140066004700010878008000eb000e80e800a9
:10242400010878000a0037006400470010007800b3
:1024340092ff0700ceff0700000f78000e80e8002f
:10244400100078008000e8000e80e80001087800a1
:102454000e80e800900078006600470010007800c5
:10246400808f5000f0ff35001e0078000080fa00d5
:10247400000006000a00fa000e82e800000a780054
:1024840064004700010878006600470002087800ed
:1024940068004700030878000000eb00000f780094
:1024a4000c00370066004700100178006400470004
:1024b400900078000e80e800100078000d000700fe
:1024c4000000e00002003a000000eb0007003700c3
:1024d4001e0fe80068004700100078009e00780096
:1024e400808f5000efff3500100020000080fa00bc
:1024f400000006000e00fa00e80147008009780099
:102504006a004700010878006c0047000208780060
:102514006000b800008fbe008000eb00640047003c
:10252400010878002b0037008000eb0066004700ac
:10253400010878001c00370068004700100078008c
:10254400e10f500009003200e20f50000c0032008d
:102554000000e0000f003a001efb0700cf80de0001
:102564001e0f40005e9748000a00370038fb070042
:10257400cf80de001e0f40005e9748000500370044
:102584003dfb0700cf80de001e0f40005e97480031
:102594000000000066004700100078008000e8009a
:1025a4006600470001087800660047009000780044
:1025b4006c00470010007800808f5000deff35006b
:1025c40064004700100078008000e80064004700c1
:1025d400010878006400470090007800703e2000f5
:1025e400808f5000d0ff34006a00470090007800cc
:1025f400803e20000088b90000007800cf80de0013
:1026040012002000be0f5000ae8f580001003400ad
:102614000001eb00020078000080fa0000000600d0
:102624000000fa00c022ef00c822ef00e024ef000f
:10263400e224ef00c422ef00cc22ef00c002a80085
:10264400c022a800c802a800c9e2a800c9c2a80004
:10265400c062a800c822a800c842a800c042a800be
:10266400c982a800e004a800e024a800e204a800ad
:10267400e3e4a800e3c4a800e064a800e224a800fe
:10268400e244a800e044a800e384a8000080fa0023
:10269400000006000000fa0041e3a9004143a9003c
:1026a400011a8000f0cf2f0000806000001a88001b
:1026b400011a8000f0f02f008080600000072000e5
:1026c40001007000001a88004043a800111a80001d
:1026d400f0ff230000806000101a880043a3a900c3
:1026e4004363a8004343a800111a800030f82f0068
:1026f400808060008002200001007000101a8800b1
:102704004203a90045e3a900211a8000f00f2e001e
:10271400008060000080a000201a880000c2b3007e
:1027240044e3b700f0e12700801a880041e3a800e1
:102734000080fa00000006000000fa000421a9004d
:102744002108800000032000010070002008880098
:1027540020a127001008880005e1a90021058000b8
:10276400f0ff28000080600000e0a0002005880041
:102774008460a9009460a8000021ef0011e1a80082
:1027840081088000f0fc2f00008060000040a00061
:10279400800888001021a900f070220060088800d9
:1027a4001061a9001221a9009108800000032000f3
:1027b400010070009008880020a12700700888009c
:1027c40013e1a9000a21ef004105800080ff2f00da
:1027d400008060000020a000400588008500a9005a
:1027e4009500a8000080fa00000006000000fa002e
:1027f4009021ef009221ef00810c8000f03f2e0029
:1028040000806000800c8800810c800080ff2f0015
:10281400008060006000b300800c8800900c800091
:10282400f001b300900c880092e1a900f07022003e
:10283400a00c8800d02a2000b00c88000080fa0088
:04284400000006008a
:020000040000fa
:10284800200800000400000002000000cdcccc00ed
:102858003d00000024080000040000000000000003
:10286800120800000e000000020000000100ff0036
:10287800ff020000ffff010000010000010000004e
:102888000008000012000000000000000000000026
:020000040000fa
:102898000000fa00213a8000f08f2f0000806000cd
:1028a800203a88005dff070079ff0700a1ff0700b5
:1028b800cdff0700f00020009040880081fd070050
:1028c800803e200065fd0700dcf90700feff3700a9
:020000040000fa
:0200000401f009
:04000c00dfff000012
:020000040000fa
:0200000401f009
:04001000fbff0000f2
:020000040000fa
:0200000401f009
:040014005fff00008a
:00000001FF
