:020000040000fa
:080000000002040000000000f2
:020000040000fa
:04000800e80200000a
:020000040000fa
:04000c00e802000006
:020000040000fa
:04001000e802000002
:020000040000fa
:04001400e8020000fe
:020000040000fa
:04001800e8020000fa
:020000040000fa
:04001c00e8020000f6
:020000040000fa
:04002000e8020000f2
:020000040000fa
:04002400e8020000ee
:020000040000fa
:04002800e8020000ea
:020000040000fa
:04002c00e8020000e6
:020000040000fa
:04003000e8020000e2
:020000040000fa
:04003400d0020000f6
:020000040000fa
:04003800e8020000da
:020000040000fa
:04003c00e8020000d6
:020000040000fa
:04004000e8020000d2
:020000040000fa
:04004400e8020000ce
:020000040000fa
:04004800e8020000ca
:020000040000fa
:04004c00e8020000c6
:020000040000fa
:04005000e8020000c2
:020000040000fa
:04005400e8020000be
:020000040000fa
:04005800e8020000ba
:020000040000fa
:04005c00e8020000b6
:020000040000fa
:04006000e8020000b2
:020000040000fa
:04006400e8020000ae
:020000040000fa
:04006800e8020000aa
:020000040000fa
:04006c00e8020000a6
:020000040000fa
:04007000e8020000a2
:020000040000fa
:04007400e80200009e
:020000040000fa
:04007800e80200009a
:020000040000fa
:04007c00e802000096
:020000040000fa
:04008000e802000092
:020000040000fa
:04008400e80200008e
:020000040000fa
:04008800e80200008a
:020000040000fa
:04008c00e802000086
:020000040000fa
:04009000e802000082
:020000040000fa
:04009400e80200007e
:020000040000fa
:04009800e80200007a
:020000040000fa
:04009c00e802000076
:020000040000fa
:0400a000e802000072
:020000040000fa
:0400a400e80200006e
:020000040000fa
:0400a800e80200006a
:020000040000fa
:0400ac00e802000066
:020000040000fa
:0400b000e802000062
:020000040000fa
:0400b400e80200005e
:020000040000fa
:0400b800e80200005a
:020000040000fa
:0400bc00e802000056
:020000040000fa
:0400c000e802000052
:020000040000fa
:0400c400e80200004e
:020000040000fa
:0400c800e80200004a
:020000040000fa
:0400cc00e802000046
:020000040000fa
:0400d000e802000042
:020000040000fa
:0400d400e80200003e
:020000040000fa
:0400d800e80200003a
:020000040000fa
:0400dc00e802000036
:020000040000fa
:0400e000e802000032
:020000040000fa
:0400e400e80200002e
:020000040000fa
:0400e800e80200002a
:020000040000fa
:0400ec00e802000026
:020000040000fa
:0400f000e802000022
:020000040000fa
:0400f400e80200001e
:020000040000fa
:0400f800e80200001a
:020000040000fa
:0400fc00e802000016
:020000040000fa
:04010000e802000011
:020000040000fa
:04010400e80200000d
:020000040000fa
:04010800e802000009
:020000040000fa
:04010c00e802000005
:020000040000fa
:04011000e802000001
:020000040000fa
:04011400e8020000fd
:020000040000fa
:04011800e8020000f9
:020000040000fa
:04011c00e8020000f5
:020000040000fa
:04012000e8020000f1
:020000040000fa
:04012400e8020000ed
:020000040000fa
:04012800e8020000e9
:020000040000fa
:04012c00e8020000e5
:020000040000fa
:04013000e8020000e1
:020000040000fa
:04013400e8020000dd
:020000040000fa
:04013800e8020000d9
:020000040000fa
:04013c00e8020000d5
:020000040000fa
:04014000e8020000d1
:020000040000fa
:04014400e8020000cd
:020000040000fa
:04014800e8020000c9
:020000040000fa
:04014c00e8020000c5
:020000040000fa
:04015000e8020000c1
:020000040000fa
:04015400e8020000bd
:020000040000fa
:04015800e8020000b9
:020000040000fa
:04015c00e8020000b5
:020000040000fa
:04016000e8020000b1
:020000040000fa
:04016400e8020000ad
:020000040000fa
:04016800e8020000a9
:020000040000fa
:04020800e802000008
:020000040000fa
:04020c00e802000004
:020000040000fa
:04021000e802000000
:020000040000fa
:04021400e8020000fc
:020000040000fa
:04021800e8020000f8
:020000040000fa
:04021c00e8020000f4
:020000040000fa
:04022000e8020000f0
:020000040000fa
:04022400e8020000ec
:020000040000fa
:04022800e8020000e8
:020000040000fa
:04022c00e8020000e4
:020000040000fa
:04023000e8020000e0
:020000040000fa
:04023400d0020000f4
:020000040000fa
:04023800e8020000d8
:020000040000fa
:04023c00e8020000d4
:020000040000fa
:04024000e8020000d0
:020000040000fa
:04024400e8020000cc
:020000040000fa
:04024800e8020000c8
:020000040000fa
:04024c00e8020000c4
:020000040000fa
:04025000e8020000c0
:020000040000fa
:04025400e8020000bc
:020000040000fa
:04025800e8020000b8
:020000040000fa
:04025c00e8020000b4
:020000040000fa
:04026000e8020000b0
:020000040000fa
:04026400e8020000ac
:020000040000fa
:04026800e8020000a8
:020000040000fa
:04026c00e8020000a4
:020000040000fa
:04027000e8020000a0
:020000040000fa
:04027400e80200009c
:020000040000fa
:04027800e802000098
:020000040000fa
:04027c00e802000094
:020000040000fa
:04028000e802000090
:020000040000fa
:04028400e80200008c
:020000040000fa
:04028800e802000088
:020000040000fa
:04028c00e802000084
:020000040000fa
:04029000e802000080
:020000040000fa
:04029400e80200007c
:020000040000fa
:04029800e802000078
:020000040000fa
:04029c00e802000074
:020000040000fa
:0402a000e802000070
:020000040000fa
:0402a400e80200006c
:020000040000fa
:0402a800e802000068
:020000040000fa
:0402ac00e802000064
:020000040000fa
:0402b000e802000060
:020000040000fa
:0402b400e80200005c
:020000040000fa
:0402b800e802000058
:020000040000fa
:0402bc00e802000054
:020000040000fa
:0402c000e802000050
:020000040000fa
:0402c400e80200004c
:020000040000fa
:0402c800e802000048
:020000040000fa
:0402cc00e802000044
:020000040000fa
:0402d000e802000040
:020000040000fa
:0402d400e80200003c
:020000040000fa
:0402d800e802000038
:020000040000fa
:0402dc00e802000034
:020000040000fa
:0402e000e802000030
:020000040000fa
:0402e400e80200002c
:020000040000fa
:0402e800e802000028
:020000040000fa
:0402ec00e802000024
:020000040000fa
:0402f000e802000020
:020000040000fa
:0402f400e80200001c
:020000040000fa
:0402f800e802000018
:020000040000fa
:0402fc00e802000014
:020000040000fa
:04030000e80200000f
:020000040000fa
:04030400e80200000b
:020000040000fa
:04030800e802000007
:020000040000fa
:04030c00e802000003
:020000040000fa
:04031000e8020000ff
:020000040000fa
:04031400e8020000fb
:020000040000fa
:04031800e8020000f7
:020000040000fa
:04031c00e8020000f3
:020000040000fa
:04032000e8020000ef
:020000040000fa
:04032400e8020000eb
:020000040000fa
:04032800e8020000e7
:020000040000fa
:04032c00e8020000e3
:020000040000fa
:04033000e8020000df
:020000040000fa
:04033400e8020000db
:020000040000fa
:04033800e8020000d7
:020000040000fa
:04033c00e8020000d3
:020000040000fa
:04034000e8020000cf
:020000040000fa
:04034400e8020000cb
:020000040000fa
:04034800e8020000c7
:020000040000fa
:04034c00e8020000c3
:020000040000fa
:04035000e8020000bf
:020000040000fa
:04035400e8020000bb
:020000040000fa
:04035800e8020000b7
:020000040000fa
:04035c00e8020000b3
:020000040000fa
:04036000e8020000af
:020000040000fa
:04036400e8020000ab
:020000040000fa
:04036800e8020000a7
:020000040000fa
:100400002f8120000eff20000e0188000000000058
:10041000000020000000e000020032000001200087
:1004200020028800140007006b0007000000e000b5
:1004300003003a0080842000010020000200370001
:100440000000200001002000810f70000100320038
:1004500014000700000020000000e000020032004d
:1004600000000200000000001e0802000000000062
:100470000040da000000fe004440a9000000200017
:100480000000e0000300320000002000a00188000e
:100490004440a800000006008a1f78008b1f7800e7
:1004a0000000060091018800800478000000eb0045
:1004b0001a003700e284440032a0b4009905ba0063
:1004c000e284440032a0b4009906ba00e2844400f9
:1004d00032a0b4000006eb00476fde00fd07b2005b
:1004e000636ce10003003a00ebff07000000eb0043
:1004f0000a003700606ce10004003a00005deb0088
:100500008b05e900fdff3e00040037006168e10053
:10051000010032000086eb000b00070019c7ba008b
:100520001905ba000e04e00003003a000a00e000da
:10053000e0ff3a0000000600fe07b2009e018800be
:100540008a047800f5ff3700395dba008b05e900b1
:100550000c003200295dba008b05e900080032006a
:100560000c00e00003003a00e284440032a0b40032
:10057000f5ff370019ddba008b05e900faff3a00f4
:100580008904e800e184440032a0b40000000600c1
:10059000000000000000000000000000000000005b
:1005a000801f78000000fa008460a900100020007d
:1005b00080408800404080000000a2004040880049
:1005c0000021ef000080fa004f0078000040060094
:0c05d0000040da000000fe000000050002
:020000040000fa
:1005dc000000fa00001880000000e00019003a004a
:1005ec00101880000000e00016003a00201880006f
:1005fc000000e00013003a0041188000306a20002f
:10060c00808f50000c003600c1188000b05d2000b7
:10061c00808f500008003600311880007057200081
:10062c00808f500004003600d118800090412000cb
:10063c00808f500002003e001000200002003700a6
:10064c00010037000000eb000080fa0000000600fb
:10065c000000fa003b0007000000e0003700320009
:10066c00f000200000408800040107009118800071
:10067c0030062000808f500012003e00b000200099
:10068c0000408800fd00070021502000701720005a
:10069c0001000100f000200000408800f700070076
:1006ac0000322000b00c880021502000007d20007a
:1006bc00010001009000200000408800ef000700be
:1006cc00110037009000200000408800eb0007006c
:1006dc00215020007017200001000100f0002000c4
:1006ec0000408800e5000700601d2000b00c880069
:1006fc0021502000007d200001000100b0002000ee
:10070c0000408800dd000700d02a2000b00c8800d3
:10071c000000000011188000a02a2000808f5000db
:10072c00fcff3e001000200000408800d3000700b2
:10073c0021502000e02e2000010001000080fa0072
:10074c00000006000000fa0001188000401520008f
:10075c00808f5000080036001118800040152000d2
:10076c00808f5000040036002118800040152000b6
:10077c00808f500006003e0041188000700c200055
:10078c00808f500002003e00100020000100370056
:10079c000000eb000080fa00000006000000fa00e8
:1007ac0000408000e90f50001c003200e90f50009f
:1007bc0003003c00e80f5000060032005c003700dc
:1007cc00ea0f500027003200eb0f500037003200c8
:1007dc005700370031188000700c2000808f5000bb
:1007ec0044003e00c1188000b0122000808f5000e1
:1007fc0003003e00b0002000004088004c00370091
:10080c0041188000b0122000808f50003b003e0049
:10081c00900020000040880045003700c11880007f
:10082c00700c2000808f500036003e003118800084
:10083c00b0122000808f500003003e00a00020006a
:10084c00004088003a003700d1188000b012200018
:10085c00808f50002d003e0080002000004088005a
:10086c0033003700d1188000700c2000808f5000ae
:10087c0028003e0041188000b0122000808f5000ec
:10088c0003003e0090002000004088002800370044
:10089c00c1188000b0122000808f50001f003e0055
:1008ac00b000200000408800210037004118800073
:1008bc00700c2000808f50001a003e003118800010
:1008cc00b0122000808f500003003e00a0002000da
:1008dc000040880016003700d1188000b0122000ac
:1008ec00808f500011003e008000200000408800e6
:1008fc000f003700000000000d0037000000000062
:10090c000b00370000000000090037000000000059
:10091c000700370000000000050037000000000051
:10092c000300370000000000010037000000000049
:10093c000080fa00000006000000fa000018800099
:10094c003d00070050408800101880003a00070056
:10095c002040880020188000370007006040880085
:10096c0000408000e30f500010003200e60f5000f2
:10097c0014003200e10f50001d003a00504080007e
:10098c00e20f500003003a00600020000040880095
:10099c001700370060408000e20f50000f003a0053
:1009ac0030002000004088001100370020408000fb
:1009bc00e20f50000b003a001000200000408800ad
:1009cc000b00370020408000e20f500007003a0077
:1009dc0010002000004088000500370000000000d7
:1009ec000300370000000000010037000000000089
:1009fc000080fa00000006000200fa00000f7800e8
:100a0c0005e1a8000021ef000080eb001008880031
:100a1c00000000001e0078006f00b9000000780094
:100a2c0001088000810f5000faff3e0005e1a9008b
:100a3c000080fa00000006000200fa00000f7800a7
:100a4c00902a20009e007800808f50000200360013
:100a5c000000eb0007003700401520009e007800d6
:100a6c00808f50000200360010002000010037007b
:100a7c00200020000080fa00000006000000fa00b0
:100a8c001140800000408000808f500076003200c2
:100a9c0000408000cf80de00f20020000300200028
:100aac00820f5000838f58006c003e0000600100e4
:100abc000f003700150037001b00370021003700ee
:100acc00270037002d00370033003700390037007e
:100adc003f003700450037004b003700510037000e
:100aec005e0037005d0037005c00370054003700b3
:100afc00046420008001eb000001eb008000eb009f
:100b0c000000eb00040001005400370004642000d6
:100b1c00130020000001eb008000eb000000eb0054
:100b2c00040001004d003700046420008001eb003c
:100b3c00120020008000eb000000eb00040001001c
:100b4c00460037000464200013002000120020002f
:100b5c008000eb000000eb00040001003f003700b8
:100b6c00046420008001eb000001eb001100200068
:100b7c000000eb0004000100380037000464200082
:100b8c00130020000001eb00110020000000eb001e
:100b9c000400010031003700046420008001eb00e8
:100bac0012002000110020000000eb0004000100e6
:100bbc002a003700046420001300200012002000db
:100bcc00110020000000eb0004000100230037009e
:100bdc00046420008001eb000001eb008000eb00be
:100bec0010002000040001001c00370004642000e9
:100bfc00130020000001eb008000eb00100020002f
:100c0c000400010015003700046420008001eb0093
:100c1c00120020008000eb001000200004000100f6
:100c2c000e00370004642000130020001200200086
:100c3c008000eb00100020000400010007003700ca
:100c4c00046420001300200012002000110020007a
:100c5c001000200004000100000000000040800093
:100c6c001040880001003700000000000080fa00ee
:100c7c00000006000800fa00000f78000e80e80063
:100c8c0001087800640047000208780066004700fd
:100c9c0003087800660047001000780000407800d8
:100cac00614060000080fb00610060004400dd00da
:100cbc00611680000140a1000100700060168800e0
:100ccc00640047001000780000407800614060002c
:100cdc000080fb00610060004400dd0021168000f4
:100cec000140a10001007000201688000e80e80071
:100cfc001000780000407800614060000080fb002c
:100d0c00610060004800dd00611680000180a100d8
:100d1c0001007000601688001e007800004078000a
:100d2c00614060000080fb00610060004700dd0056
:100d3c00611680000170a10001007000601688002f
:100d4c000080fa00000006000000fa003118800054
:100d5c00b0122000808f500002003e00cc82a80010
:100d6c0001003700cc82a900c1188000b01220000d
:100d7c00808f500002003e00c482a80001003700a2
:100d8c00c482a900d1188000b0122000808f5000be
:100d9c0002003e00cd02a80001003700cd02a900e0
:100dac0041188000b0122000808f500002003e00dd
:100dbc00cce2a800e5ff3700cce2a900e3ff370046
:100dcc000000fa000100370000000000dafe070006
:100ddc0041188000b0122000808f50000c003e00a3
:100dec00cce2a800c1188000b0122000808f500007
:100dfc0001003e00c482a800004080000000e0001a
:100e0c00f1ff3a00cc82a800cd02a800efff37001a
:100e1c00cc82a900c482a900cd02a900cce2a90011
:100e2c00eaff37000000fa000018800002ff0700fc
:100e3c005040880010188000fffe070020408800fa
:100e4c0020188000fcfe07006040880052408000a3
:100e5c0021408000604080008001eb0085ff07008e
:100e6c00f1ff37000000fa00c022ef00c822ef00ab
:100e7c00e024ef00e224ef00c422ef00cc22ef00cc
:100e8c00c002a800c022a800c802a800c9e2a8009d
:100e9c00c822a800c842a800c042a800c982a80065
:100eac00e004a800e024a800e204a800e3e4a80001
:100ebc00e224a800e244a800e044a800e384a800cf
:100ecc000080fa00000006000000fa0041e3a900cf
:100edc004143a900011a8000f0cf2f000080600070
:100eec00001a8800011a8000f0f02f00808060004a
:100efc000007200001007000001a88004043a80081
:100f0c00111a8000f0ff230000806000101a880086
:100f1c0043a3a9004363a8004343a800111a80000f
:100f2c0030f82f0000806000c001b300101a880058
:100f3c004203a90045e3a900211a8000f00f2e00fe
:100f4c00008060000080a000201a880000c2b3005e
:100f5c0044e3b700f0212300801a880041e3a80085
:100f6c000080fa00000006000000fa000421a9002d
:100f7c002108800000032000010070002008880078
:100f8c0020a127001008880005e1a9002105800098
:100f9c00f0ff28000080600000e0a0002005880021
:100fac008460a9009460a8000021ef0011e1a80062
:100fbc0081088000f0fc2f00008060000040a00041
:100fcc00800888001021a900f070220060088800b9
:100fdc000080fa00000006000000fa009021ef00eb
:100fec009221ef00810c8000f03f2e000080600009
:100ffc00800c8800810c800080ff2f000080600036
:10100c006000b300800c8800900c8000f001b300ed
:10101c00900c880092e1a900f0702200a00c8800ce
:10102c00d02a2000b00c88000080fa0000000600d6
:10103c000000fa00213a8000f08f2f000080600041
:10104c00203a880087ff07009fff0700c6ff0700b4
:10105c00e1ff0700f00020000040880087fe070039
:10106c00803e200064fe0700100020000040880035
:10107c0082fe070030fe070080fe070074fd0700ab
:04108c00fcff37002e
:020000040000fa
:10109000000800000a000000020000000100ff003c
:1010a000ff020000ffff0100000000000a0800002e
:0c10b0000800000000000000000000002c
:020000040000fa
:0200000401f009
:04000c00dfff000012
:020000040000fa
:0200000401f009
:04001000fbff0000f2
:00000001FF
